{
  "_format": "hh-sol-artifact-1",
  "contractName": "NFTMarketPlace",
  "sourceName": "contracts/NFTMarketplace.sol",
  "abi": [
    {
      "inputs": [],
      "stateMutability": "nonpayable",
      "type": "constructor"
    },
    {
      "inputs": [],
      "name": "ApprovalCallerNotOwnerNorApproved",
      "type": "error"
    },
    {
      "inputs": [],
      "name": "ApprovalQueryForNonexistentToken",
      "type": "error"
    },
    {
      "inputs": [],
      "name": "ApproveToCaller",
      "type": "error"
    },
    {
      "inputs": [],
      "name": "BalanceQueryForZeroAddress",
      "type": "error"
    },
    {
      "inputs": [],
      "name": "MintERC2309QuantityExceedsLimit",
      "type": "error"
    },
    {
      "inputs": [],
      "name": "MintToZeroAddress",
      "type": "error"
    },
    {
      "inputs": [],
      "name": "MintZeroQuantity",
      "type": "error"
    },
    {
      "inputs": [],
      "name": "OwnerQueryForNonexistentToken",
      "type": "error"
    },
    {
      "inputs": [],
      "name": "OwnershipNotInitializedForExtraData",
      "type": "error"
    },
    {
      "inputs": [],
      "name": "TransferCallerNotOwnerNorApproved",
      "type": "error"
    },
    {
      "inputs": [],
      "name": "TransferFromIncorrectOwner",
      "type": "error"
    },
    {
      "inputs": [],
      "name": "TransferToNonERC721ReceiverImplementer",
      "type": "error"
    },
    {
      "inputs": [],
      "name": "TransferToZeroAddress",
      "type": "error"
    },
    {
      "inputs": [],
      "name": "URIQueryForNonexistentToken",
      "type": "error"
    },
    {
      "anonymous": false,
      "inputs": [
        {
          "indexed": true,
          "internalType": "address",
          "name": "owner",
          "type": "address"
        },
        {
          "indexed": true,
          "internalType": "address",
          "name": "approved",
          "type": "address"
        },
        {
          "indexed": true,
          "internalType": "uint256",
          "name": "tokenId",
          "type": "uint256"
        }
      ],
      "name": "Approval",
      "type": "event"
    },
    {
      "anonymous": false,
      "inputs": [
        {
          "indexed": true,
          "internalType": "address",
          "name": "owner",
          "type": "address"
        },
        {
          "indexed": true,
          "internalType": "address",
          "name": "operator",
          "type": "address"
        },
        {
          "indexed": false,
          "internalType": "bool",
          "name": "approved",
          "type": "bool"
        }
      ],
      "name": "ApprovalForAll",
      "type": "event"
    },
    {
      "anonymous": false,
      "inputs": [
        {
          "indexed": true,
          "internalType": "uint256",
          "name": "fromTokenId",
          "type": "uint256"
        },
        {
          "indexed": false,
          "internalType": "uint256",
          "name": "toTokenId",
          "type": "uint256"
        },
        {
          "indexed": true,
          "internalType": "address",
          "name": "from",
          "type": "address"
        },
        {
          "indexed": true,
          "internalType": "address",
          "name": "to",
          "type": "address"
        }
      ],
      "name": "ConsecutiveTransfer",
      "type": "event"
    },
    {
      "anonymous": false,
      "inputs": [
        {
          "indexed": true,
          "internalType": "uint256",
          "name": "tokenId",
          "type": "uint256"
        },
        {
          "indexed": false,
          "internalType": "address",
          "name": "owner",
          "type": "address"
        },
        {
          "indexed": false,
          "internalType": "uint256",
          "name": "price",
          "type": "uint256"
        },
        {
          "indexed": false,
          "internalType": "bool",
          "name": "sold",
          "type": "bool"
        }
      ],
      "name": "MarketItemCreated",
      "type": "event"
    },
    {
      "anonymous": false,
      "inputs": [
        {
          "indexed": true,
          "internalType": "address",
          "name": "from",
          "type": "address"
        },
        {
          "indexed": true,
          "internalType": "address",
          "name": "to",
          "type": "address"
        },
        {
          "indexed": true,
          "internalType": "uint256",
          "name": "tokenId",
          "type": "uint256"
        }
      ],
      "name": "Transfer",
      "type": "event"
    },
    {
      "inputs": [],
      "name": "DodCounter",
      "outputs": [
        {
          "internalType": "uint256",
          "name": "",
          "type": "uint256"
        }
      ],
      "stateMutability": "view",
      "type": "function"
    },
    {
      "inputs": [
        {
          "internalType": "uint256",
          "name": "amount",
          "type": "uint256"
        }
      ],
      "name": "TransferToOwner",
      "outputs": [],
      "stateMutability": "nonpayable",
      "type": "function"
    },
    {
      "inputs": [
        {
          "internalType": "address",
          "name": "to",
          "type": "address"
        },
        {
          "internalType": "uint256",
          "name": "tokenId",
          "type": "uint256"
        }
      ],
      "name": "approve",
      "outputs": [],
      "stateMutability": "nonpayable",
      "type": "function"
    },
    {
      "inputs": [
        {
          "internalType": "address",
          "name": "owner",
          "type": "address"
        }
      ],
      "name": "balanceOf",
      "outputs": [
        {
          "internalType": "uint256",
          "name": "",
          "type": "uint256"
        }
      ],
      "stateMutability": "view",
      "type": "function"
    },
    {
      "inputs": [
        {
          "internalType": "uint256",
          "name": "_tokenId",
          "type": "uint256"
        },
        {
          "internalType": "uint256",
          "name": "price",
          "type": "uint256"
        }
      ],
      "name": "changeTokenPrice",
      "outputs": [],
      "stateMutability": "nonpayable",
      "type": "function"
    },
    {
      "inputs": [
        {
          "internalType": "uint256",
          "name": "tokenId",
          "type": "uint256"
        },
        {
          "internalType": "bytes32",
          "name": "_commitment",
          "type": "bytes32"
        }
      ],
      "name": "createMarketItem",
      "outputs": [],
      "stateMutability": "payable",
      "type": "function"
    },
    {
      "inputs": [
        {
          "internalType": "uint256",
          "name": "tokenId",
          "type": "uint256"
        },
        {
          "internalType": "uint256",
          "name": "salt",
          "type": "uint256"
        }
      ],
      "name": "createMarketSale",
      "outputs": [],
      "stateMutability": "nonpayable",
      "type": "function"
    },
    {
      "inputs": [
        {
          "internalType": "string",
          "name": "tokenURI",
          "type": "string"
        },
        {
          "internalType": "uint256",
          "name": "price",
          "type": "uint256"
        },
        {
          "internalType": "string",
          "name": "_name",
          "type": "string"
        },
        {
          "internalType": "string",
          "name": "_src",
          "type": "string"
        }
      ],
      "name": "createToken",
      "outputs": [
        {
          "internalType": "uint256",
          "name": "",
          "type": "uint256"
        }
      ],
      "stateMutability": "nonpayable",
      "type": "function"
    },
    {
      "inputs": [],
      "name": "fetchItemsListed",
      "outputs": [
        {
          "components": [
            {
              "internalType": "uint256",
              "name": "tokenId",
              "type": "uint256"
            },
            {
              "internalType": "string",
              "name": "tokenName",
              "type": "string"
            },
            {
              "internalType": "string",
              "name": "tokenURI",
              "type": "string"
            },
            {
              "internalType": "address payable",
              "name": "mintedBy",
              "type": "address"
            },
            {
              "internalType": "address payable",
              "name": "currentOwner",
              "type": "address"
            },
            {
              "internalType": "bool",
              "name": "listed",
              "type": "bool"
            },
            {
              "internalType": "address payable",
              "name": "previousOwner",
              "type": "address"
            },
            {
              "internalType": "bool",
              "name": "sold",
              "type": "bool"
            },
            {
              "internalType": "uint256",
              "name": "price",
              "type": "uint256"
            },
            {
              "internalType": "uint256",
              "name": "numberOfTransfers",
              "type": "uint256"
            },
            {
              "internalType": "string",
              "name": "src",
              "type": "string"
            }
          ],
          "internalType": "struct NFTMarketPlace.DodNFT[]",
          "name": "",
          "type": "tuple[]"
        }
      ],
      "stateMutability": "view",
      "type": "function"
    },
    {
      "inputs": [],
      "name": "fetchMarketItems",
      "outputs": [
        {
          "components": [
            {
              "internalType": "uint256",
              "name": "tokenId",
              "type": "uint256"
            },
            {
              "internalType": "string",
              "name": "tokenName",
              "type": "string"
            },
            {
              "internalType": "string",
              "name": "tokenURI",
              "type": "string"
            },
            {
              "internalType": "address payable",
              "name": "mintedBy",
              "type": "address"
            },
            {
              "internalType": "address payable",
              "name": "currentOwner",
              "type": "address"
            },
            {
              "internalType": "bool",
              "name": "listed",
              "type": "bool"
            },
            {
              "internalType": "address payable",
              "name": "previousOwner",
              "type": "address"
            },
            {
              "internalType": "bool",
              "name": "sold",
              "type": "bool"
            },
            {
              "internalType": "uint256",
              "name": "price",
              "type": "uint256"
            },
            {
              "internalType": "uint256",
              "name": "numberOfTransfers",
              "type": "uint256"
            },
            {
              "internalType": "string",
              "name": "src",
              "type": "string"
            }
          ],
          "internalType": "struct NFTMarketPlace.DodNFT[]",
          "name": "",
          "type": "tuple[]"
        }
      ],
      "stateMutability": "view",
      "type": "function"
    },
    {
      "inputs": [],
      "name": "fetchMyNFTs",
      "outputs": [
        {
          "components": [
            {
              "internalType": "uint256",
              "name": "tokenId",
              "type": "uint256"
            },
            {
              "internalType": "string",
              "name": "tokenName",
              "type": "string"
            },
            {
              "internalType": "string",
              "name": "tokenURI",
              "type": "string"
            },
            {
              "internalType": "address payable",
              "name": "mintedBy",
              "type": "address"
            },
            {
              "internalType": "address payable",
              "name": "currentOwner",
              "type": "address"
            },
            {
              "internalType": "bool",
              "name": "listed",
              "type": "bool"
            },
            {
              "internalType": "address payable",
              "name": "previousOwner",
              "type": "address"
            },
            {
              "internalType": "bool",
              "name": "sold",
              "type": "bool"
            },
            {
              "internalType": "uint256",
              "name": "price",
              "type": "uint256"
            },
            {
              "internalType": "uint256",
              "name": "numberOfTransfers",
              "type": "uint256"
            },
            {
              "internalType": "string",
              "name": "src",
              "type": "string"
            }
          ],
          "internalType": "struct NFTMarketPlace.DodNFT[]",
          "name": "",
          "type": "tuple[]"
        }
      ],
      "stateMutability": "view",
      "type": "function"
    },
    {
      "inputs": [
        {
          "internalType": "uint256",
          "name": "tokenId",
          "type": "uint256"
        }
      ],
      "name": "getApproved",
      "outputs": [
        {
          "internalType": "address",
          "name": "",
          "type": "address"
        }
      ],
      "stateMutability": "view",
      "type": "function"
    },
    {
      "inputs": [],
      "name": "getListingPrice",
      "outputs": [
        {
          "internalType": "uint256",
          "name": "",
          "type": "uint256"
        }
      ],
      "stateMutability": "view",
      "type": "function"
    },
    {
      "inputs": [
        {
          "internalType": "uint256",
          "name": "_tokenURI",
          "type": "uint256"
        }
      ],
      "name": "getTokenURI",
      "outputs": [
        {
          "internalType": "string",
          "name": "",
          "type": "string"
        }
      ],
      "stateMutability": "view",
      "type": "function"
    },
    {
      "inputs": [
        {
          "internalType": "address",
          "name": "owner",
          "type": "address"
        },
        {
          "internalType": "address",
          "name": "operator",
          "type": "address"
        }
      ],
      "name": "isApprovedForAll",
      "outputs": [
        {
          "internalType": "bool",
          "name": "",
          "type": "bool"
        }
      ],
      "stateMutability": "view",
      "type": "function"
    },
    {
      "inputs": [],
      "name": "name",
      "outputs": [
        {
          "internalType": "string",
          "name": "",
          "type": "string"
        }
      ],
      "stateMutability": "view",
      "type": "function"
    },
    {
      "inputs": [
        {
          "internalType": "address",
          "name": "operator",
          "type": "address"
        },
        {
          "internalType": "address",
          "name": "from",
          "type": "address"
        },
        {
          "internalType": "uint256",
          "name": "tokenId",
          "type": "uint256"
        },
        {
          "internalType": "bytes",
          "name": "data",
          "type": "bytes"
        }
      ],
      "name": "onERC721Received",
      "outputs": [
        {
          "internalType": "bytes4",
          "name": "",
          "type": "bytes4"
        }
      ],
      "stateMutability": "nonpayable",
      "type": "function"
    },
    {
      "inputs": [
        {
          "internalType": "uint256",
          "name": "",
          "type": "uint256"
        }
      ],
      "name": "oneDod",
      "outputs": [
        {
          "internalType": "uint256",
          "name": "tokenId",
          "type": "uint256"
        },
        {
          "internalType": "string",
          "name": "tokenName",
          "type": "string"
        },
        {
          "internalType": "string",
          "name": "tokenURI",
          "type": "string"
        },
        {
          "internalType": "address payable",
          "name": "mintedBy",
          "type": "address"
        },
        {
          "internalType": "address payable",
          "name": "currentOwner",
          "type": "address"
        },
        {
          "internalType": "bool",
          "name": "listed",
          "type": "bool"
        },
        {
          "internalType": "address payable",
          "name": "previousOwner",
          "type": "address"
        },
        {
          "internalType": "bool",
          "name": "sold",
          "type": "bool"
        },
        {
          "internalType": "uint256",
          "name": "price",
          "type": "uint256"
        },
        {
          "internalType": "uint256",
          "name": "numberOfTransfers",
          "type": "uint256"
        },
        {
          "internalType": "string",
          "name": "src",
          "type": "string"
        }
      ],
      "stateMutability": "view",
      "type": "function"
    },
    {
      "inputs": [
        {
          "internalType": "uint256",
          "name": "tokenId",
          "type": "uint256"
        }
      ],
      "name": "ownerOf",
      "outputs": [
        {
          "internalType": "address",
          "name": "",
          "type": "address"
        }
      ],
      "stateMutability": "view",
      "type": "function"
    },
    {
      "inputs": [
        {
          "internalType": "uint256",
          "name": "_tokenId",
          "type": "uint256"
        }
      ],
      "name": "removeFromSale",
      "outputs": [],
      "stateMutability": "nonpayable",
      "type": "function"
    },
    {
      "inputs": [
        {
          "internalType": "uint256",
          "name": "tokenId",
          "type": "uint256"
        },
        {
          "internalType": "uint256",
          "name": "price",
          "type": "uint256"
        }
      ],
      "name": "resellToken",
      "outputs": [],
      "stateMutability": "payable",
      "type": "function"
    },
    {
      "inputs": [
        {
          "internalType": "address",
          "name": "from",
          "type": "address"
        },
        {
          "internalType": "address",
          "name": "to",
          "type": "address"
        },
        {
          "internalType": "uint256",
          "name": "tokenId",
          "type": "uint256"
        }
      ],
      "name": "safeTransferFrom",
      "outputs": [],
      "stateMutability": "nonpayable",
      "type": "function"
    },
    {
      "inputs": [
        {
          "internalType": "address",
          "name": "from",
          "type": "address"
        },
        {
          "internalType": "address",
          "name": "to",
          "type": "address"
        },
        {
          "internalType": "uint256",
          "name": "tokenId",
          "type": "uint256"
        },
        {
          "internalType": "bytes",
          "name": "_data",
          "type": "bytes"
        }
      ],
      "name": "safeTransferFrom",
      "outputs": [],
      "stateMutability": "nonpayable",
      "type": "function"
    },
    {
      "inputs": [
        {
          "internalType": "address",
          "name": "operator",
          "type": "address"
        },
        {
          "internalType": "bool",
          "name": "approved",
          "type": "bool"
        }
      ],
      "name": "setApprovalForAll",
      "outputs": [],
      "stateMutability": "nonpayable",
      "type": "function"
    },
    {
      "inputs": [
        {
          "internalType": "bytes4",
          "name": "interfaceId",
          "type": "bytes4"
        }
      ],
      "name": "supportsInterface",
      "outputs": [
        {
          "internalType": "bool",
          "name": "",
          "type": "bool"
        }
      ],
      "stateMutability": "view",
      "type": "function"
    },
    {
      "inputs": [],
      "name": "symbol",
      "outputs": [
        {
          "internalType": "string",
          "name": "",
          "type": "string"
        }
      ],
      "stateMutability": "view",
      "type": "function"
    },
    {
      "inputs": [
        {
          "internalType": "string",
          "name": "",
          "type": "string"
        }
      ],
      "name": "tokenNameExists",
      "outputs": [
        {
          "internalType": "bool",
          "name": "",
          "type": "bool"
        }
      ],
      "stateMutability": "view",
      "type": "function"
    },
    {
      "inputs": [
        {
          "internalType": "uint256",
          "name": "tokenId",
          "type": "uint256"
        }
      ],
      "name": "tokenURI",
      "outputs": [
        {
          "internalType": "string",
          "name": "",
          "type": "string"
        }
      ],
      "stateMutability": "view",
      "type": "function"
    },
    {
      "inputs": [],
      "name": "totalSupply",
      "outputs": [
        {
          "internalType": "uint256",
          "name": "",
          "type": "uint256"
        }
      ],
      "stateMutability": "view",
      "type": "function"
    },
    {
      "inputs": [
        {
          "internalType": "address",
          "name": "from",
          "type": "address"
        },
        {
          "internalType": "address",
          "name": "to",
          "type": "address"
        },
        {
          "internalType": "uint256",
          "name": "tokenId",
          "type": "uint256"
        }
      ],
      "name": "transferFrom",
      "outputs": [],
      "stateMutability": "nonpayable",
      "type": "function"
    },
    {
      "inputs": [
        {
          "internalType": "uint256",
          "name": "_listingPrice",
          "type": "uint256"
        }
      ],
      "name": "updateListingPrice",
      "outputs": [],
      "stateMutability": "payable",
      "type": "function"
    }
  ],
  "bytecode": "0x60806040526608e1bc9bf040006009556001600b60146101000a81548160ff021916908360ff1602179055503480156200003857600080fd5b506040518060400160405280600981526020017f446f6420546f6b656e00000000000000000000000000000000000000000000008152506040518060400160405280600781526020017f444f444e465473000000000000000000000000000000000000000000000000008152508160029080519060200190620000bd9291906200013f565b508060039080519060200190620000d69291906200013f565b50620000e76200013660201b60201c565b600081905550505033600b60006101000a81548173ffffffffffffffffffffffffffffffffffffffff021916908373ffffffffffffffffffffffffffffffffffffffff16021790555062000254565b60006001905090565b8280546200014d906200021e565b90600052602060002090601f016020900481019282620001715760008555620001bd565b82601f106200018c57805160ff1916838001178555620001bd565b82800160010185558215620001bd579182015b82811115620001bc5782518255916020019190600101906200019f565b5b509050620001cc9190620001d0565b5090565b5b80821115620001eb576000816000905550600101620001d1565b5090565b7f4e487b7100000000000000000000000000000000000000000000000000000000600052602260045260246000fd5b600060028204905060018216806200023757607f821691505b602082108114156200024e576200024d620001ef565b5b50919050565b614b3080620002646000396000f3fe6080604052600436106101d85760003560e01c806362e8e8ac11610102578063ae677aa311610095578063e219fc7511610064578063e219fc75146106e2578063e7c3a03e146106fe578063e985e9c51461073b578063fcf3809a14610778576101d8565b8063ae677aa314610637578063b88d4fde14610653578063b91557f31461067c578063c87b56dd146106a5576101d8565b806395d89b41116100d157806395d89b411461057d578063a1c11ca8146105a8578063a22cb465146105d1578063a46b1fac146105fa576101d8565b806362e8e8ac146104be5780636352211e146104e757806370a08231146105245780638865b27514610561576101d8565b80631479cc221161017a57806323b872dd1161014957806323b872dd146104045780633bb3a24d1461042d57806342842e0e1461046a57806345f8fa8014610493576101d8565b80631479cc221461032a578063150b7a021461037157806318160ddd146103ae578063202e3740146103d9576101d8565b8063095ea7b3116101b6578063095ea7b3146102825780630f08efe0146102ab57806312e85585146102d65780631361a3b614610301576101d8565b806301ffc9a7146101dd57806306fdde031461021a578063081812fc14610245575b600080fd5b3480156101e957600080fd5b5061020460048036038101906101ff9190613618565b6107a3565b6040516102119190613660565b60405180910390f35b34801561022657600080fd5b5061022f610835565b60405161023c9190613714565b60405180910390f35b34801561025157600080fd5b5061026c6004803603810190610267919061376c565b6108c7565b60405161027991906137da565b60405180910390f35b34801561028e57600080fd5b506102a960048036038101906102a49190613821565b610946565b005b3480156102b757600080fd5b506102c0610a8a565b6040516102cd9190613aa9565b60405180910390f35b3480156102e257600080fd5b506102eb610e95565b6040516102f89190613ada565b60405180910390f35b34801561030d57600080fd5b506103286004803603810190610323919061376c565b610e9f565b005b34801561033657600080fd5b50610351600480360381019061034c919061376c565b610ed7565b6040516103689b9a99989796959493929190613b04565b60405180910390f35b34801561037d57600080fd5b5061039860048036038101906103939190613c29565b611143565b6040516103a59190613cc0565b60405180910390f35b3480156103ba57600080fd5b506103c3611171565b6040516103d09190613ada565b60405180910390f35b3480156103e557600080fd5b506103ee611188565b6040516103fb9190613aa9565b60405180910390f35b34801561041057600080fd5b5061042b60048036038101906104269190613cdb565b6116b2565b005b34801561043957600080fd5b50610454600480360381019061044f919061376c565b6119d7565b6040516104619190613714565b60405180910390f35b34801561047657600080fd5b50610491600480360381019061048c9190613cdb565b611a7c565b005b34801561049f57600080fd5b506104a8611a9c565b6040516104b59190613aa9565b60405180910390f35b3480156104ca57600080fd5b506104e560048036038101906104e09190613d2e565b611ef2565b005b3480156104f357600080fd5b5061050e6004803603810190610509919061376c565b611fa9565b60405161051b91906137da565b60405180910390f35b34801561053057600080fd5b5061054b60048036038101906105469190613d6e565b611fbb565b6040516105589190613ada565b60405180910390f35b61057b60048036038101906105769190613dd1565b612074565b005b34801561058957600080fd5b5061059261214a565b60405161059f9190613714565b60405180910390f35b3480156105b457600080fd5b506105cf60048036038101906105ca9190613d2e565b6121dc565b005b3480156105dd57600080fd5b506105f860048036038101906105f39190613e3d565b6123b8565b005b34801561060657600080fd5b50610621600480360381019061061c9190613fad565b612530565b60405161062e9190613660565b60405180910390f35b610651600480360381019061064c919061376c565b612566565b005b34801561065f57600080fd5b5061067a60048036038101906106759190614097565b612600565b005b34801561068857600080fd5b506106a3600480360381019061069e919061376c565b612673565b005b3480156106b157600080fd5b506106cc60048036038101906106c7919061376c565b6127b1565b6040516106d99190613714565b60405180910390f35b6106fc60048036038101906106f79190613d2e565b612850565b005b34801561070a57600080fd5b506107256004803603810190610720919061411a565b61298f565b6040516107329190613ada565b60405180910390f35b34801561074757600080fd5b50610762600480360381019061075d91906141d5565b612cb1565b60405161076f9190613660565b60405180910390f35b34801561078457600080fd5b5061078d612d45565b60405161079a9190613ada565b60405180910390f35b60006301ffc9a760e01b827bffffffffffffffffffffffffffffffffffffffffffffffffffffffff191614806107fe57506380ac58cd60e01b827bffffffffffffffffffffffffffffffffffffffffffffffffffffffff1916145b8061082e5750635b5e139f60e01b827bffffffffffffffffffffffffffffffffffffffffffffffffffffffff1916145b9050919050565b60606002805461084490614244565b80601f016020809104026020016040519081016040528092919081815260200182805461087090614244565b80156108bd5780601f10610892576101008083540402835291602001916108bd565b820191906000526020600020905b8154815290600101906020018083116108a057829003601f168201915b5050505050905090565b60006108d282612d54565b610908576040517fcf4700e400000000000000000000000000000000000000000000000000000000815260040160405180910390fd5b6006600083815260200190815260200160002060000160009054906101000a900473ffffffffffffffffffffffffffffffffffffffff169050919050565b600061095182611fa9565b90508073ffffffffffffffffffffffffffffffffffffffff16610972612db3565b73ffffffffffffffffffffffffffffffffffffffff16146109d55761099e81610999612db3565b612cb1565b6109d4576040517fcfb3b94200000000000000000000000000000000000000000000000000000000815260040160405180910390fd5b5b826006600084815260200190815260200160002060000160006101000a81548173ffffffffffffffffffffffffffffffffffffffff021916908373ffffffffffffffffffffffffffffffffffffffff160217905550818373ffffffffffffffffffffffffffffffffffffffff168273ffffffffffffffffffffffffffffffffffffffff167f8c5be1e5ebec7d5bd14f71427d1e84f3dd0314c0f7b2291e5b200ac8c7c3b92560405160405180910390a4505050565b606060006001610a98612dbb565b610aa291906142a5565b90506000808267ffffffffffffffff811115610ac157610ac0613e82565b5b604051908082528060200260200182016040528015610afa57816020015b610ae7613469565b815260200190600190039081610adf5790505b50905060005b83811015610e8b576000600182610b1791906142d9565b90506000600e60008381526020019081526020016000209050806040518061016001604052908160008201548152602001600182018054610b5790614244565b80601f0160208091040260200160405190810160405280929190818152602001828054610b8390614244565b8015610bd05780601f10610ba557610100808354040283529160200191610bd0565b820191906000526020600020905b815481529060010190602001808311610bb357829003601f168201915b50505050508152602001600282018054610be990614244565b80601f0160208091040260200160405190810160405280929190818152602001828054610c1590614244565b8015610c625780601f10610c3757610100808354040283529160200191610c62565b820191906000526020600020905b815481529060010190602001808311610c4557829003601f168201915b505050505081526020016003820160009054906101000a900473ffffffffffffffffffffffffffffffffffffffff1673ffffffffffffffffffffffffffffffffffffffff1673ffffffffffffffffffffffffffffffffffffffff1681526020016004820160009054906101000a900473ffffffffffffffffffffffffffffffffffffffff1673ffffffffffffffffffffffffffffffffffffffff1673ffffffffffffffffffffffffffffffffffffffff1681526020016004820160149054906101000a900460ff161515151581526020016005820160009054906101000a900473ffffffffffffffffffffffffffffffffffffffff1673ffffffffffffffffffffffffffffffffffffffff1673ffffffffffffffffffffffffffffffffffffffff1681526020016005820160149054906101000a900460ff161515151581526020016006820154815260200160078201548152602001600882018054610dc790614244565b80601f0160208091040260200160405190810160405280929190818152602001828054610df390614244565b8015610e405780601f10610e1557610100808354040283529160200191610e40565b820191906000526020600020905b815481529060010190602001808311610e2357829003601f168201915b505050505081525050848681518110610e5c57610e5b61432f565b5b6020026020010181905250600185610e7491906142d9565b945050508080610e839061435e565b915050610b00565b5080935050505090565b6000600954905090565b6000600e6000838152602001908152602001600020905060008160040160146101000a81548160ff0219169083151502179055505050565b600e602052806000526040600020600091509050806000015490806001018054610f0090614244565b80601f0160208091040260200160405190810160405280929190818152602001828054610f2c90614244565b8015610f795780601f10610f4e57610100808354040283529160200191610f79565b820191906000526020600020905b815481529060010190602001808311610f5c57829003601f168201915b505050505090806002018054610f8e90614244565b80601f0160208091040260200160405190810160405280929190818152602001828054610fba90614244565b80156110075780601f10610fdc57610100808354040283529160200191611007565b820191906000526020600020905b815481529060010190602001808311610fea57829003601f168201915b5050505050908060030160009054906101000a900473ffffffffffffffffffffffffffffffffffffffff16908060040160009054906101000a900473ffffffffffffffffffffffffffffffffffffffff16908060040160149054906101000a900460ff16908060050160009054906101000a900473ffffffffffffffffffffffffffffffffffffffff16908060050160149054906101000a900460ff16908060060154908060070154908060080180546110c090614244565b80601f01602080910402602001604051908101604052809291908181526020018280546110ec90614244565b80156111395780601f1061110e57610100808354040283529160200191611139565b820191906000526020600020905b81548152906001019060200180831161111c57829003601f168201915b505050505090508b565b60007f150b7a023d4804d13e8c85fb27262cb750cf6ba9f9dd3bb30d90f482ceeb4b1f905095945050505050565b600061117b612dc4565b6001546000540303905090565b606060006001611196612dbb565b6111a091906142a5565b905060008060005b83811015611249573373ffffffffffffffffffffffffffffffffffffffff16600e60006001846111d891906142d9565b815260200190815260200160002060040160009054906101000a900473ffffffffffffffffffffffffffffffffffffffff1673ffffffffffffffffffffffffffffffffffffffff1614156112365760018361123391906142d9565b92505b80806112419061435e565b9150506111a8565b5060008267ffffffffffffffff81111561126657611265613e82565b5b60405190808252806020026020018201604052801561129f57816020015b61128c613469565b8152602001906001900390816112845790505b50905060005b848110156116a7573373ffffffffffffffffffffffffffffffffffffffff16600e60006001846112d591906142d9565b815260200190815260200160002060040160009054906101000a900473ffffffffffffffffffffffffffffffffffffffff1673ffffffffffffffffffffffffffffffffffffffff16141561169457600060018261133291906142d9565b90506000600e6000838152602001908152602001600020905080604051806101600160405290816000820154815260200160018201805461137290614244565b80601f016020809104026020016040519081016040528092919081815260200182805461139e90614244565b80156113eb5780601f106113c0576101008083540402835291602001916113eb565b820191906000526020600020905b8154815290600101906020018083116113ce57829003601f168201915b5050505050815260200160028201805461140490614244565b80601f016020809104026020016040519081016040528092919081815260200182805461143090614244565b801561147d5780601f106114525761010080835404028352916020019161147d565b820191906000526020600020905b81548152906001019060200180831161146057829003601f168201915b505050505081526020016003820160009054906101000a900473ffffffffffffffffffffffffffffffffffffffff1673ffffffffffffffffffffffffffffffffffffffff1673ffffffffffffffffffffffffffffffffffffffff1681526020016004820160009054906101000a900473ffffffffffffffffffffffffffffffffffffffff1673ffffffffffffffffffffffffffffffffffffffff1673ffffffffffffffffffffffffffffffffffffffff1681526020016004820160149054906101000a900460ff161515151581526020016005820160009054906101000a900473ffffffffffffffffffffffffffffffffffffffff1673ffffffffffffffffffffffffffffffffffffffff1673ffffffffffffffffffffffffffffffffffffffff1681526020016005820160149054906101000a900460ff1615151515815260200160068201548152602001600782015481526020016008820180546115e290614244565b80601f016020809104026020016040519081016040528092919081815260200182805461160e90614244565b801561165b5780601f106116305761010080835404028352916020019161165b565b820191906000526020600020905b81548152906001019060200180831161163e57829003601f168201915b5050505050815250508486815181106116775761167661432f565b5b602002602001018190525060018561168f91906142d9565b945050505b808061169f9061435e565b9150506112a5565b508094505050505090565b60006116bd82612dcd565b90508373ffffffffffffffffffffffffffffffffffffffff168173ffffffffffffffffffffffffffffffffffffffff1614611724576040517fa114810000000000000000000000000000000000000000000000000000000000815260040160405180910390fd5b60008061173084612e9b565b915091506117468187611741612db3565b612ec2565b6117925761175b86611756612db3565b612cb1565b611791576040517f59c896be00000000000000000000000000000000000000000000000000000000815260040160405180910390fd5b5b600073ffffffffffffffffffffffffffffffffffffffff168573ffffffffffffffffffffffffffffffffffffffff1614156117f9576040517fea553b3400000000000000000000000000000000000000000000000000000000815260040160405180910390fd5b6118068686866001612f06565b801561181157600082555b600560008773ffffffffffffffffffffffffffffffffffffffff1673ffffffffffffffffffffffffffffffffffffffff168152602001908152602001600020600081546001900391905081905550600560008673ffffffffffffffffffffffffffffffffffffffff1673ffffffffffffffffffffffffffffffffffffffff16815260200190815260200160002060008154600101919050819055506118df856118bb888887612f0c565b7c020000000000000000000000000000000000000000000000000000000017612f34565b600460008681526020019081526020016000208190555060007c020000000000000000000000000000000000000000000000000000000084161415611967576000600185019050600060046000838152602001908152602001600020541415611965576000548114611964578360046000838152602001908152602001600020819055505b5b505b838573ffffffffffffffffffffffffffffffffffffffff168773ffffffffffffffffffffffffffffffffffffffff167fddf252ad1be2c89b69c2b068fc378daa952ba7f163c4a11628f55a4df523b3ef60405160405180910390a46119cf8686866001612f5f565b505050505050565b6060600d600083815260200190815260200160002080546119f790614244565b80601f0160208091040260200160405190810160405280929190818152602001828054611a2390614244565b8015611a705780601f10611a4557610100808354040283529160200191611a70565b820191906000526020600020905b815481529060010190602001808311611a5357829003601f168201915b50505050509050919050565b611a9783838360405180602001604052806000815250612600565b505050565b60606000611aa8612dbb565b90506000611ab66008612f65565b82611ac191906142a5565b90506000808267ffffffffffffffff811115611ae057611adf613e82565b5b604051908082528060200260200182016040528015611b1957816020015b611b06613469565b815260200190600190039081611afe5790505b50905060005b84811015611ee75760011515600e6000600184611b3c91906142d9565b815260200190815260200160002060040160149054906101000a900460ff1615151415611ed4576000600182611b7291906142d9565b90506000600e60008381526020019081526020016000209050806040518061016001604052908160008201548152602001600182018054611bb290614244565b80601f0160208091040260200160405190810160405280929190818152602001828054611bde90614244565b8015611c2b5780601f10611c0057610100808354040283529160200191611c2b565b820191906000526020600020905b815481529060010190602001808311611c0e57829003601f168201915b50505050508152602001600282018054611c4490614244565b80601f0160208091040260200160405190810160405280929190818152602001828054611c7090614244565b8015611cbd5780601f10611c9257610100808354040283529160200191611cbd565b820191906000526020600020905b815481529060010190602001808311611ca057829003601f168201915b505050505081526020016003820160009054906101000a900473ffffffffffffffffffffffffffffffffffffffff1673ffffffffffffffffffffffffffffffffffffffff1673ffffffffffffffffffffffffffffffffffffffff1681526020016004820160009054906101000a900473ffffffffffffffffffffffffffffffffffffffff1673ffffffffffffffffffffffffffffffffffffffff1673ffffffffffffffffffffffffffffffffffffffff1681526020016004820160149054906101000a900460ff161515151581526020016005820160009054906101000a900473ffffffffffffffffffffffffffffffffffffffff1673ffffffffffffffffffffffffffffffffffffffff1673ffffffffffffffffffffffffffffffffffffffff1681526020016005820160149054906101000a900460ff161515151581526020016006820154815260200160078201548152602001600882018054611e2290614244565b80601f0160208091040260200160405190810160405280929190818152602001828054611e4e90614244565b8015611e9b5780601f10611e7057610100808354040283529160200191611e9b565b820191906000526020600020905b815481529060010190602001808311611e7e57829003601f168201915b505050505081525050848681518110611eb757611eb661432f565b5b6020026020010181905250600185611ecf91906142d9565b945050505b8080611edf9061435e565b915050611b1f565b508094505050505090565b6000600e600084815260200190815260200160002090503373ffffffffffffffffffffffffffffffffffffffff168160040160009054906101000a900473ffffffffffffffffffffffffffffffffffffffff1673ffffffffffffffffffffffffffffffffffffffff1614611f9b576040517f08c379a0000000000000000000000000000000000000000000000000000000008152600401611f9290614419565b60405180910390fd5b818160060181905550505050565b6000611fb482612dcd565b9050919050565b60008073ffffffffffffffffffffffffffffffffffffffff168273ffffffffffffffffffffffffffffffffffffffff161415612023576040517f8f4eb60400000000000000000000000000000000000000000000000000000000815260040160405180910390fd5b67ffffffffffffffff600560008473ffffffffffffffffffffffffffffffffffffffff1673ffffffffffffffffffffffffffffffffffffffff16815260200190815260200160002054169050919050565b60095434146120b8576040517f08c379a00000000000000000000000000000000000000000000000000000000081526004016120af906144ab565b60405180910390fd5b6000600e6000848152602001908152602001600020905060018160040160146101000a81548160ff021916908315150217905550816010600085815260200190815260200160002081905550827f48836ef70a1bc65b40c471b96b77b4680e11aea31afbe3f4f050fa7961fd3c76338360060154600060405161213d939291906144cb565b60405180910390a2505050565b60606003805461215990614244565b80601f016020809104026020016040519081016040528092919081815260200182805461218590614244565b80156121d25780601f106121a7576101008083540402835291602001916121d2565b820191906000526020600020905b8154815290600101906020018083116121b557829003601f168201915b5050505050905090565b6000600e6000848152602001908152602001600020905060106000848152602001908152602001600020548160040160009054906101000a900473ffffffffffffffffffffffffffffffffffffffff1684846040516020016122409392919061456b565b6040516020818303038152906040528051906020012014612296576040517f08c379a000000000000000000000000000000000000000000000000000000000815260040161228d906145f4565b60405180910390fd5b60008160040160009054906101000a900473ffffffffffffffffffffffffffffffffffffffff16905060008260070154905060008360060154905060018460050160146101000a81548160ff021916908315150217905550338460040160006101000a81548173ffffffffffffffffffffffffffffffffffffffff021916908373ffffffffffffffffffffffffffffffffffffffff160217905550828460050160006101000a81548173ffffffffffffffffffffffffffffffffffffffff021916908373ffffffffffffffffffffffffffffffffffffffff16021790555060008460040160146101000a81548160ff02191690831515021790555060018261239e91906142d9565b84600701819055506123b06008612f73565b505050505050565b6123c0612db3565b73ffffffffffffffffffffffffffffffffffffffff168273ffffffffffffffffffffffffffffffffffffffff161415612425576040517fb06307db00000000000000000000000000000000000000000000000000000000815260040160405180910390fd5b8060076000612432612db3565b73ffffffffffffffffffffffffffffffffffffffff1673ffffffffffffffffffffffffffffffffffffffff16815260200190815260200160002060008473ffffffffffffffffffffffffffffffffffffffff1673ffffffffffffffffffffffffffffffffffffffff16815260200190815260200160002060006101000a81548160ff0219169083151502179055508173ffffffffffffffffffffffffffffffffffffffff166124df612db3565b73ffffffffffffffffffffffffffffffffffffffff167f17307eab39ab6107e8899845ad3d59bd9653f200f220920489ca2b5937696c31836040516125249190613660565b60405180910390a35050565b600f818051602081018201805184825260208301602085012081835280955050505050506000915054906101000a900460ff1681565b3373ffffffffffffffffffffffffffffffffffffffff16600b60009054906101000a900473ffffffffffffffffffffffffffffffffffffffff1673ffffffffffffffffffffffffffffffffffffffff16146125f6576040517f08c379a00000000000000000000000000000000000000000000000000000000081526004016125ed90614686565b60405180910390fd5b8060098190555050565b61260b8484846116b2565b60008373ffffffffffffffffffffffffffffffffffffffff163b1461266d5761263684848484612f89565b61266c576040517fd1a57ed600000000000000000000000000000000000000000000000000000000815260040160405180910390fd5b5b50505050565b600b60009054906101000a900473ffffffffffffffffffffffffffffffffffffffff1673ffffffffffffffffffffffffffffffffffffffff163373ffffffffffffffffffffffffffffffffffffffff1614612703576040517f08c379a00000000000000000000000000000000000000000000000000000000081526004016126fa906146f2565b60405180910390fd5b804711612745576040517f08c379a000000000000000000000000000000000000000000000000000000000815260040161273c9061475e565b60405180910390fd5b600b60009054906101000a900473ffffffffffffffffffffffffffffffffffffffff1673ffffffffffffffffffffffffffffffffffffffff166108fc829081150290604051600060405180830381858888f193505050501580156127ad573d6000803e3d6000fd5b5050565b60606127bc82612d54565b6127f2576040517fa14c4b5000000000000000000000000000000000000000000000000000000000815260040160405180910390fd5b60006127fc6130e9565b905060008151141561281d5760405180602001604052806000815250612848565b8061282784613100565b6040516020016128389291906147ba565b6040516020818303038152906040525b915050919050565b6000600e600084815260200190815260200160002090503373ffffffffffffffffffffffffffffffffffffffff168160040160009054906101000a900473ffffffffffffffffffffffffffffffffffffffff1673ffffffffffffffffffffffffffffffffffffffff16146128f9576040517f08c379a00000000000000000000000000000000000000000000000000000000081526004016128f090614850565b60405180910390fd5b600954341461293d576040517f08c379a0000000000000000000000000000000000000000000000000000000008152600401612934906148e2565b60405180910390fd5b60008160050160146101000a81548160ff02191690831515021790555081816006018190555060018160040160146101000a81548160ff02191690831515021790555061298a6008613150565b505050565b6000600f836040516129a19190614902565b908152602001604051809103902060009054906101000a900460ff16156129fd576040517f08c379a00000000000000000000000000000000000000000000000000000000081526004016129f49061498b565b60405180910390fd5b6000612a07612dbb565b9050612a2533600b60149054906101000a900460ff1660ff166131ac565b612a2f81876131ca565b60006040518061016001604052808381526020018681526020018881526020013373ffffffffffffffffffffffffffffffffffffffff1681526020013373ffffffffffffffffffffffffffffffffffffffff168152602001600015158152602001600073ffffffffffffffffffffffffffffffffffffffff1681526020016000151581526020018781526020016000815260200185815250905080600e6000848152602001908152602001600020600082015181600001556020820151816001019080519060200190612b03929190613509565b506040820151816002019080519060200190612b20929190613509565b5060608201518160030160006101000a81548173ffffffffffffffffffffffffffffffffffffffff021916908373ffffffffffffffffffffffffffffffffffffffff16021790555060808201518160040160006101000a81548173ffffffffffffffffffffffffffffffffffffffff021916908373ffffffffffffffffffffffffffffffffffffffff16021790555060a08201518160040160146101000a81548160ff02191690831515021790555060c08201518160050160006101000a81548173ffffffffffffffffffffffffffffffffffffffff021916908373ffffffffffffffffffffffffffffffffffffffff16021790555060e08201518160050160146101000a81548160ff02191690831515021790555061010082015181600601556101208201518160070155610140820151816008019080519060200190612c69929190613509565b509050506001600f86604051612c7f9190614902565b908152602001604051809103902060006101000a81548160ff0219169083151502179055508192505050949350505050565b6000600760008473ffffffffffffffffffffffffffffffffffffffff1673ffffffffffffffffffffffffffffffffffffffff16815260200190815260200160002060008373ffffffffffffffffffffffffffffffffffffffff1673ffffffffffffffffffffffffffffffffffffffff16815260200190815260200160002060009054906101000a900460ff16905092915050565b6000612d4f612dbb565b905090565b600081612d5f612dc4565b11158015612d6e575060005482105b8015612dac575060007c0100000000000000000000000000000000000000000000000000000000600460008581526020019081526020016000205416145b9050919050565b600033905090565b60008054905090565b60006001905090565b60008082905080612ddc612dc4565b11612e6457600054811015612e635760006004600083815260200190815260200160002054905060007c010000000000000000000000000000000000000000000000000000000082161415612e61575b6000811415612e57576004600083600190039350838152602001908152602001600020549050612e2c565b8092505050612e96565b505b5b6040517fdf2d9b4200000000000000000000000000000000000000000000000000000000815260040160405180910390fd5b919050565b60008060006006600085815260200190815260200160002090508092508254915050915091565b600073ffffffffffffffffffffffffffffffffffffffff8316925073ffffffffffffffffffffffffffffffffffffffff821691508382148383141790509392505050565b50505050565b60008060e883901c905060e8612f238686846131f6565b62ffffff16901b9150509392505050565b600073ffffffffffffffffffffffffffffffffffffffff83169250814260a01b178317905092915050565b50505050565b600081600001549050919050565b6001816000016000828254019250508190555050565b60008373ffffffffffffffffffffffffffffffffffffffff1663150b7a02612faf612db3565b8786866040518563ffffffff1660e01b8152600401612fd19493929190614a00565b602060405180830381600087803b158015612feb57600080fd5b505af192505050801561301c57506040513d601f19601f820116820180604052508101906130199190614a61565b60015b613096573d806000811461304c576040519150601f19603f3d011682016040523d82523d6000602084013e613051565b606091505b5060008151141561308e576040517fd1a57ed600000000000000000000000000000000000000000000000000000000815260040160405180910390fd5b805181602001fd5b63150b7a0260e01b7bffffffffffffffffffffffffffffffffffffffffffffffffffffffff1916817bffffffffffffffffffffffffffffffffffffffffffffffffffffffff191614915050949350505050565b606060405180602001604052806000815250905090565b606060806040510190508060405280825b60011561313c57600183039250600a81066030018353600a81049050806131375761313c565b613111565b508181036020830392508083525050919050565b6000816000015490506000811161319c576040517f08c379a000000000000000000000000000000000000000000000000000000000815260040161319390614ada565b60405180910390fd5b6001810382600001819055505050565b6131c68282604051806020016040528060008152506131ff565b5050565b80600d600084815260200190815260200160002090805190602001906131f1929190613509565b505050565b60009392505050565b613209838361329c565b60008373ffffffffffffffffffffffffffffffffffffffff163b1461329757600080549050600083820390505b6132496000868380600101945086612f89565b61327f576040517fd1a57ed600000000000000000000000000000000000000000000000000000000815260040160405180910390fd5b81811061323657816000541461329457600080fd5b50505b505050565b60008054905060008214156132dd576040517fb562e8dd00000000000000000000000000000000000000000000000000000000815260040160405180910390fd5b6132ea6000848385612f06565b600160406001901b178202600560008573ffffffffffffffffffffffffffffffffffffffff1673ffffffffffffffffffffffffffffffffffffffff16815260200190815260200160002060008282540192505081905550613361836133526000866000612f0c565b61335b85613459565b17612f34565b6004600083815260200190815260200160002081905550600080838301905073ffffffffffffffffffffffffffffffffffffffff85169150828260007fddf252ad1be2c89b69c2b068fc378daa952ba7f163c4a11628f55a4df523b3ef600080a4600183015b81811461340257808360007fddf252ad1be2c89b69c2b068fc378daa952ba7f163c4a11628f55a4df523b3ef600080a46001810190506133c7565b50600082141561343e576040517f2e07630000000000000000000000000000000000000000000000000000000000815260040160405180910390fd5b8060008190555050506134546000848385612f5f565b505050565b60006001821460e11b9050919050565b604051806101600160405280600081526020016060815260200160608152602001600073ffffffffffffffffffffffffffffffffffffffff168152602001600073ffffffffffffffffffffffffffffffffffffffff168152602001600015158152602001600073ffffffffffffffffffffffffffffffffffffffff1681526020016000151581526020016000815260200160008152602001606081525090565b82805461351590614244565b90600052602060002090601f016020900481019282613537576000855561357e565b82601f1061355057805160ff191683800117855561357e565b8280016001018555821561357e579182015b8281111561357d578251825591602001919060010190613562565b5b50905061358b919061358f565b5090565b5b808211156135a8576000816000905550600101613590565b5090565b6000604051905090565b600080fd5b600080fd5b60007fffffffff0000000000000000000000000000000000000000000000000000000082169050919050565b6135f5816135c0565b811461360057600080fd5b50565b600081359050613612816135ec565b92915050565b60006020828403121561362e5761362d6135b6565b5b600061363c84828501613603565b91505092915050565b60008115159050919050565b61365a81613645565b82525050565b60006020820190506136756000830184613651565b92915050565b600081519050919050565b600082825260208201905092915050565b60005b838110156136b557808201518184015260208101905061369a565b838111156136c4576000848401525b50505050565b6000601f19601f8301169050919050565b60006136e68261367b565b6136f08185613686565b9350613700818560208601613697565b613709816136ca565b840191505092915050565b6000602082019050818103600083015261372e81846136db565b905092915050565b6000819050919050565b61374981613736565b811461375457600080fd5b50565b60008135905061376681613740565b92915050565b600060208284031215613782576137816135b6565b5b600061379084828501613757565b91505092915050565b600073ffffffffffffffffffffffffffffffffffffffff82169050919050565b60006137c482613799565b9050919050565b6137d4816137b9565b82525050565b60006020820190506137ef60008301846137cb565b92915050565b6137fe816137b9565b811461380957600080fd5b50565b60008135905061381b816137f5565b92915050565b60008060408385031215613838576138376135b6565b5b60006138468582860161380c565b925050602061385785828601613757565b9150509250929050565b600081519050919050565b600082825260208201905092915050565b6000819050602082019050919050565b61389681613736565b82525050565b600082825260208201905092915050565b60006138b88261367b565b6138c2818561389c565b93506138d2818560208601613697565b6138db816136ca565b840191505092915050565b60006138f182613799565b9050919050565b613901816138e6565b82525050565b61391081613645565b82525050565b60006101608301600083015161392f600086018261388d565b506020830151848203602086015261394782826138ad565b9150506040830151848203604086015261396182826138ad565b915050606083015161397660608601826138f8565b50608083015161398960808601826138f8565b5060a083015161399c60a0860182613907565b5060c08301516139af60c08601826138f8565b5060e08301516139c260e0860182613907565b506101008301516139d761010086018261388d565b506101208301516139ec61012086018261388d565b50610140830151848203610140860152613a0682826138ad565b9150508091505092915050565b6000613a1f8383613916565b905092915050565b6000602082019050919050565b6000613a3f82613861565b613a49818561386c565b935083602082028501613a5b8561387d565b8060005b85811015613a975784840389528151613a788582613a13565b9450613a8383613a27565b925060208a01995050600181019050613a5f565b50829750879550505050505092915050565b60006020820190508181036000830152613ac38184613a34565b905092915050565b613ad481613736565b82525050565b6000602082019050613aef6000830184613acb565b92915050565b613afe816138e6565b82525050565b600061016082019050613b1a600083018e613acb565b8181036020830152613b2c818d6136db565b90508181036040830152613b40818c6136db565b9050613b4f606083018b613af5565b613b5c608083018a613af5565b613b6960a0830189613651565b613b7660c0830188613af5565b613b8360e0830187613651565b613b91610100830186613acb565b613b9f610120830185613acb565b818103610140830152613bb281846136db565b90509c9b505050505050505050505050565b600080fd5b600080fd5b600080fd5b60008083601f840112613be957613be8613bc4565b5b8235905067ffffffffffffffff811115613c0657613c05613bc9565b5b602083019150836001820283011115613c2257613c21613bce565b5b9250929050565b600080600080600060808688031215613c4557613c446135b6565b5b6000613c538882890161380c565b9550506020613c648882890161380c565b9450506040613c7588828901613757565b935050606086013567ffffffffffffffff811115613c9657613c956135bb565b5b613ca288828901613bd3565b92509250509295509295909350565b613cba816135c0565b82525050565b6000602082019050613cd56000830184613cb1565b92915050565b600080600060608486031215613cf457613cf36135b6565b5b6000613d028682870161380c565b9350506020613d138682870161380c565b9250506040613d2486828701613757565b9150509250925092565b60008060408385031215613d4557613d446135b6565b5b6000613d5385828601613757565b9250506020613d6485828601613757565b9150509250929050565b600060208284031215613d8457613d836135b6565b5b6000613d928482850161380c565b91505092915050565b6000819050919050565b613dae81613d9b565b8114613db957600080fd5b50565b600081359050613dcb81613da5565b92915050565b60008060408385031215613de857613de76135b6565b5b6000613df685828601613757565b9250506020613e0785828601613dbc565b9150509250929050565b613e1a81613645565b8114613e2557600080fd5b50565b600081359050613e3781613e11565b92915050565b60008060408385031215613e5457613e536135b6565b5b6000613e628582860161380c565b9250506020613e7385828601613e28565b9150509250929050565b600080fd5b7f4e487b7100000000000000000000000000000000000000000000000000000000600052604160045260246000fd5b613eba826136ca565b810181811067ffffffffffffffff82111715613ed957613ed8613e82565b5b80604052505050565b6000613eec6135ac565b9050613ef88282613eb1565b919050565b600067ffffffffffffffff821115613f1857613f17613e82565b5b613f21826136ca565b9050602081019050919050565b82818337600083830152505050565b6000613f50613f4b84613efd565b613ee2565b905082815260208101848484011115613f6c57613f6b613e7d565b5b613f77848285613f2e565b509392505050565b600082601f830112613f9457613f93613bc4565b5b8135613fa4848260208601613f3d565b91505092915050565b600060208284031215613fc357613fc26135b6565b5b600082013567ffffffffffffffff811115613fe157613fe06135bb565b5b613fed84828501613f7f565b91505092915050565b600067ffffffffffffffff82111561401157614010613e82565b5b61401a826136ca565b9050602081019050919050565b600061403a61403584613ff6565b613ee2565b90508281526020810184848401111561405657614055613e7d565b5b614061848285613f2e565b509392505050565b600082601f83011261407e5761407d613bc4565b5b813561408e848260208601614027565b91505092915050565b600080600080608085870312156140b1576140b06135b6565b5b60006140bf8782880161380c565b94505060206140d08782880161380c565b93505060406140e187828801613757565b925050606085013567ffffffffffffffff811115614102576141016135bb565b5b61410e87828801614069565b91505092959194509250565b60008060008060808587031215614134576141336135b6565b5b600085013567ffffffffffffffff811115614152576141516135bb565b5b61415e87828801613f7f565b945050602061416f87828801613757565b935050604085013567ffffffffffffffff8111156141905761418f6135bb565b5b61419c87828801613f7f565b925050606085013567ffffffffffffffff8111156141bd576141bc6135bb565b5b6141c987828801613f7f565b91505092959194509250565b600080604083850312156141ec576141eb6135b6565b5b60006141fa8582860161380c565b925050602061420b8582860161380c565b9150509250929050565b7f4e487b7100000000000000000000000000000000000000000000000000000000600052602260045260246000fd5b6000600282049050600182168061425c57607f821691505b602082108114156142705761426f614215565b5b50919050565b7f4e487b7100000000000000000000000000000000000000000000000000000000600052601160045260246000fd5b60006142b082613736565b91506142bb83613736565b9250828210156142ce576142cd614276565b5b828203905092915050565b60006142e482613736565b91506142ef83613736565b9250827fffffffffffffffffffffffffffffffffffffffffffffffffffffffffffffffff0382111561432457614323614276565b5b828201905092915050565b7f4e487b7100000000000000000000000000000000000000000000000000000000600052603260045260246000fd5b600061436982613736565b91507fffffffffffffffffffffffffffffffffffffffffffffffffffffffffffffffff82141561439c5761439b614276565b5b600182019050919050565b7f4552522d312e302e393a204f6e6c79204e4654206f776e657220616c6c6f776560008201527f6400000000000000000000000000000000000000000000000000000000000000602082015250565b6000614403602183613686565b915061440e826143a7565b604082019050919050565b60006020820190508181036000830152614432816143f6565b9050919050565b7f4552522d312e302e333a5072696365206d75737420626520657175616c20746f60008201527f206c697374696e67207072696365000000000000000000000000000000000000602082015250565b6000614495602e83613686565b91506144a082614439565b604082019050919050565b600060208201905081810360008301526144c481614488565b9050919050565b60006060820190506144e060008301866137cb565b6144ed6020830185613acb565b6144fa6040830184613651565b949350505050565b60008160601b9050919050565b600061451a82614502565b9050919050565b600061452c8261450f565b9050919050565b61454461453f826138e6565b614521565b82525050565b6000819050919050565b61456561456082613736565b61454a565b82525050565b60006145778286614533565b6014820191506145878285614554565b6020820191506145978284614554565b602082019150819050949350505050565b7f4552522d312e302e363a2057726f6e67207665726966636174696f6e2e000000600082015250565b60006145de601d83613686565b91506145e9826145a8565b602082019050919050565b6000602082019050818103600083015261460d816145d1565b9050919050565b7f4552522d312e302e313a204f6e6c79206d61726b6574706c616365206f776e6560008201527f722063616e20757064617465206c697374696e672070726963652e0000000000602082015250565b6000614670603b83613686565b915061467b82614614565b604082019050919050565b6000602082019050818103600083015261469f81614663565b9050919050565b7f4552522d312e302e373a204f6e6c79206f776e65720000000000000000000000600082015250565b60006146dc601583613686565b91506146e7826146a6565b602082019050919050565b6000602082019050818103600083015261470b816146cf565b9050919050565b7f4552522d312e302e383a20496e73756666696369656e742042616c616e636500600082015250565b6000614748601f83613686565b915061475382614712565b602082019050919050565b600060208201905081810360008301526147778161473b565b9050919050565b600081905092915050565b60006147948261367b565b61479e818561477e565b93506147ae818560208601613697565b80840191505092915050565b60006147c68285614789565b91506147d28284614789565b91508190509392505050565b7f4552522d312e302e343a204f6e6c79206974656d206f776e65722063616e207060008201527f6572666f726d2074686973206f7065726174696f6e0000000000000000000000602082015250565b600061483a603583613686565b9150614845826147de565b604082019050919050565b600060208201905081810360008301526148698161482d565b9050919050565b7f4552522d312e302e353a205072696365206d75737420626520657175616c207460008201527f6f206c697374696e672070726963650000000000000000000000000000000000602082015250565b60006148cc602f83613686565b91506148d782614870565b604082019050919050565b600060208201905081810360008301526148fb816148bf565b9050919050565b600061490e8284614789565b915081905092915050565b7f4552522d312e302e323a546f6b656e206e616d6520616c72656164792065786960008201527f7374730000000000000000000000000000000000000000000000000000000000602082015250565b6000614975602383613686565b915061498082614919565b604082019050919050565b600060208201905081810360008301526149a481614968565b9050919050565b600081519050919050565b600082825260208201905092915050565b60006149d2826149ab565b6149dc81856149b6565b93506149ec818560208601613697565b6149f5816136ca565b840191505092915050565b6000608082019050614a1560008301876137cb565b614a2260208301866137cb565b614a2f6040830185613acb565b8181036060830152614a4181846149c7565b905095945050505050565b600081519050614a5b816135ec565b92915050565b600060208284031215614a7757614a766135b6565b5b6000614a8584828501614a4c565b91505092915050565b7f436f756e7465723a2064656372656d656e74206f766572666c6f770000000000600082015250565b6000614ac4601b83613686565b9150614acf82614a8e565b602082019050919050565b60006020820190508181036000830152614af381614ab7565b905091905056fea264697066735822122030f59a9e86b0ff6a97e7332f6c38943a1d21a8c47e23e51c260d03c015bee81264736f6c63430008090033",
  "linkReferences": {},
  "deployedLinkReferences": {}
}