{
  "_format": "hh-sol-artifact-1",
  "contractName": "NFTMarketPlace",
  "sourceName": "contracts/NFTMarketplace.sol",
  "abi": [
    {
      "inputs": [],
      "stateMutability": "nonpayable",
      "type": "constructor"
    },
    {
      "inputs": [],
      "name": "ApprovalCallerNotOwnerNorApproved",
      "type": "error"
    },
    {
      "inputs": [],
      "name": "ApprovalQueryForNonexistentToken",
      "type": "error"
    },
    {
      "inputs": [],
      "name": "ApproveToCaller",
      "type": "error"
    },
    {
      "inputs": [],
      "name": "BalanceQueryForZeroAddress",
      "type": "error"
    },
    {
      "inputs": [],
      "name": "MintERC2309QuantityExceedsLimit",
      "type": "error"
    },
    {
      "inputs": [],
      "name": "MintToZeroAddress",
      "type": "error"
    },
    {
      "inputs": [],
      "name": "MintZeroQuantity",
      "type": "error"
    },
    {
      "inputs": [],
      "name": "OwnerQueryForNonexistentToken",
      "type": "error"
    },
    {
      "inputs": [],
      "name": "OwnershipNotInitializedForExtraData",
      "type": "error"
    },
    {
      "inputs": [],
      "name": "TransferCallerNotOwnerNorApproved",
      "type": "error"
    },
    {
      "inputs": [],
      "name": "TransferFromIncorrectOwner",
      "type": "error"
    },
    {
      "inputs": [],
      "name": "TransferToNonERC721ReceiverImplementer",
      "type": "error"
    },
    {
      "inputs": [],
      "name": "TransferToZeroAddress",
      "type": "error"
    },
    {
      "inputs": [],
      "name": "URIQueryForNonexistentToken",
      "type": "error"
    },
    {
      "anonymous": false,
      "inputs": [
        {
          "indexed": true,
          "internalType": "address",
          "name": "owner",
          "type": "address"
        },
        {
          "indexed": true,
          "internalType": "address",
          "name": "approved",
          "type": "address"
        },
        {
          "indexed": true,
          "internalType": "uint256",
          "name": "tokenId",
          "type": "uint256"
        }
      ],
      "name": "Approval",
      "type": "event"
    },
    {
      "anonymous": false,
      "inputs": [
        {
          "indexed": true,
          "internalType": "address",
          "name": "owner",
          "type": "address"
        },
        {
          "indexed": true,
          "internalType": "address",
          "name": "operator",
          "type": "address"
        },
        {
          "indexed": false,
          "internalType": "bool",
          "name": "approved",
          "type": "bool"
        }
      ],
      "name": "ApprovalForAll",
      "type": "event"
    },
    {
      "anonymous": false,
      "inputs": [
        {
          "indexed": true,
          "internalType": "uint256",
          "name": "fromTokenId",
          "type": "uint256"
        },
        {
          "indexed": false,
          "internalType": "uint256",
          "name": "toTokenId",
          "type": "uint256"
        },
        {
          "indexed": true,
          "internalType": "address",
          "name": "from",
          "type": "address"
        },
        {
          "indexed": true,
          "internalType": "address",
          "name": "to",
          "type": "address"
        }
      ],
      "name": "ConsecutiveTransfer",
      "type": "event"
    },
    {
      "anonymous": false,
      "inputs": [
        {
          "indexed": true,
          "internalType": "uint256",
          "name": "tokenId",
          "type": "uint256"
        },
        {
          "indexed": false,
          "internalType": "address",
          "name": "seller",
          "type": "address"
        },
        {
          "indexed": false,
          "internalType": "address",
          "name": "owner",
          "type": "address"
        },
        {
          "indexed": false,
          "internalType": "uint256",
          "name": "price",
          "type": "uint256"
        },
        {
          "indexed": false,
          "internalType": "bool",
          "name": "sold",
          "type": "bool"
        }
      ],
      "name": "MarketItemCreated",
      "type": "event"
    },
    {
      "anonymous": false,
      "inputs": [
        {
          "indexed": true,
          "internalType": "address",
          "name": "from",
          "type": "address"
        },
        {
          "indexed": true,
          "internalType": "address",
          "name": "to",
          "type": "address"
        },
        {
          "indexed": true,
          "internalType": "uint256",
          "name": "tokenId",
          "type": "uint256"
        }
      ],
      "name": "Transfer",
      "type": "event"
    },
    {
      "inputs": [
        {
          "internalType": "address",
          "name": "to",
          "type": "address"
        },
        {
          "internalType": "uint256",
          "name": "tokenId",
          "type": "uint256"
        }
      ],
      "name": "approve",
      "outputs": [],
      "stateMutability": "nonpayable",
      "type": "function"
    },
    {
      "inputs": [
        {
          "internalType": "address",
          "name": "owner",
          "type": "address"
        }
      ],
      "name": "balanceOf",
      "outputs": [
        {
          "internalType": "uint256",
          "name": "",
          "type": "uint256"
        }
      ],
      "stateMutability": "view",
      "type": "function"
    },
    {
      "inputs": [
        {
          "internalType": "uint256",
          "name": "tokenId",
          "type": "uint256"
        }
      ],
      "name": "createMarketSale",
      "outputs": [],
      "stateMutability": "payable",
      "type": "function"
    },
    {
      "inputs": [
        {
          "internalType": "string",
          "name": "tokenURI",
          "type": "string"
        },
        {
          "internalType": "uint256",
          "name": "price",
          "type": "uint256"
        }
      ],
      "name": "createToken",
      "outputs": [
        {
          "internalType": "uint256",
          "name": "",
          "type": "uint256"
        }
      ],
      "stateMutability": "payable",
      "type": "function"
    },
    {
      "inputs": [],
      "name": "fetchItemsListed",
      "outputs": [
        {
          "components": [
            {
              "internalType": "uint256",
              "name": "tokenId",
              "type": "uint256"
            },
            {
              "internalType": "address payable",
              "name": "seller",
              "type": "address"
            },
            {
              "internalType": "address payable",
              "name": "owner",
              "type": "address"
            },
            {
              "internalType": "uint256",
              "name": "price",
              "type": "uint256"
            },
            {
              "internalType": "bool",
              "name": "sold",
              "type": "bool"
            }
          ],
          "internalType": "struct NFTMarketPlace.MarketItem[]",
          "name": "",
          "type": "tuple[]"
        }
      ],
      "stateMutability": "view",
      "type": "function"
    },
    {
      "inputs": [],
      "name": "fetchMarketItems",
      "outputs": [
        {
          "components": [
            {
              "internalType": "uint256",
              "name": "tokenId",
              "type": "uint256"
            },
            {
              "internalType": "address payable",
              "name": "seller",
              "type": "address"
            },
            {
              "internalType": "address payable",
              "name": "owner",
              "type": "address"
            },
            {
              "internalType": "uint256",
              "name": "price",
              "type": "uint256"
            },
            {
              "internalType": "bool",
              "name": "sold",
              "type": "bool"
            }
          ],
          "internalType": "struct NFTMarketPlace.MarketItem[]",
          "name": "",
          "type": "tuple[]"
        }
      ],
      "stateMutability": "view",
      "type": "function"
    },
    {
      "inputs": [],
      "name": "fetchMyNFTs",
      "outputs": [
        {
          "components": [
            {
              "internalType": "uint256",
              "name": "tokenId",
              "type": "uint256"
            },
            {
              "internalType": "address payable",
              "name": "seller",
              "type": "address"
            },
            {
              "internalType": "address payable",
              "name": "owner",
              "type": "address"
            },
            {
              "internalType": "uint256",
              "name": "price",
              "type": "uint256"
            },
            {
              "internalType": "bool",
              "name": "sold",
              "type": "bool"
            }
          ],
          "internalType": "struct NFTMarketPlace.MarketItem[]",
          "name": "",
          "type": "tuple[]"
        }
      ],
      "stateMutability": "view",
      "type": "function"
    },
    {
      "inputs": [
        {
          "internalType": "uint256",
          "name": "tokenId",
          "type": "uint256"
        }
      ],
      "name": "getApproved",
      "outputs": [
        {
          "internalType": "address",
          "name": "",
          "type": "address"
        }
      ],
      "stateMutability": "view",
      "type": "function"
    },
    {
      "inputs": [],
      "name": "getListingPrice",
      "outputs": [
        {
          "internalType": "uint256",
          "name": "",
          "type": "uint256"
        }
      ],
      "stateMutability": "view",
      "type": "function"
    },
    {
      "inputs": [
        {
          "internalType": "uint256",
          "name": "_tokenURI",
          "type": "uint256"
        }
      ],
      "name": "getTokenURI",
      "outputs": [
        {
          "internalType": "string",
          "name": "",
          "type": "string"
        }
      ],
      "stateMutability": "view",
      "type": "function"
    },
    {
      "inputs": [
        {
          "internalType": "address",
          "name": "owner",
          "type": "address"
        },
        {
          "internalType": "address",
          "name": "operator",
          "type": "address"
        }
      ],
      "name": "isApprovedForAll",
      "outputs": [
        {
          "internalType": "bool",
          "name": "",
          "type": "bool"
        }
      ],
      "stateMutability": "view",
      "type": "function"
    },
    {
      "inputs": [],
      "name": "name",
      "outputs": [
        {
          "internalType": "string",
          "name": "",
          "type": "string"
        }
      ],
      "stateMutability": "view",
      "type": "function"
    },
    {
      "inputs": [
        {
          "internalType": "address",
          "name": "operator",
          "type": "address"
        },
        {
          "internalType": "address",
          "name": "from",
          "type": "address"
        },
        {
          "internalType": "uint256",
          "name": "tokenId",
          "type": "uint256"
        },
        {
          "internalType": "bytes",
          "name": "data",
          "type": "bytes"
        }
      ],
      "name": "onERC721Received",
      "outputs": [
        {
          "internalType": "bytes4",
          "name": "",
          "type": "bytes4"
        }
      ],
      "stateMutability": "nonpayable",
      "type": "function"
    },
    {
      "inputs": [
        {
          "internalType": "uint256",
          "name": "tokenId",
          "type": "uint256"
        }
      ],
      "name": "ownerOf",
      "outputs": [
        {
          "internalType": "address",
          "name": "",
          "type": "address"
        }
      ],
      "stateMutability": "view",
      "type": "function"
    },
    {
      "inputs": [
        {
          "internalType": "uint256",
          "name": "tokenId",
          "type": "uint256"
        },
        {
          "internalType": "uint256",
          "name": "price",
          "type": "uint256"
        }
      ],
      "name": "resellToken",
      "outputs": [],
      "stateMutability": "payable",
      "type": "function"
    },
    {
      "inputs": [
        {
          "internalType": "address",
          "name": "from",
          "type": "address"
        },
        {
          "internalType": "address",
          "name": "to",
          "type": "address"
        },
        {
          "internalType": "uint256",
          "name": "tokenId",
          "type": "uint256"
        }
      ],
      "name": "safeTransferFrom",
      "outputs": [],
      "stateMutability": "nonpayable",
      "type": "function"
    },
    {
      "inputs": [
        {
          "internalType": "address",
          "name": "from",
          "type": "address"
        },
        {
          "internalType": "address",
          "name": "to",
          "type": "address"
        },
        {
          "internalType": "uint256",
          "name": "tokenId",
          "type": "uint256"
        },
        {
          "internalType": "bytes",
          "name": "_data",
          "type": "bytes"
        }
      ],
      "name": "safeTransferFrom",
      "outputs": [],
      "stateMutability": "nonpayable",
      "type": "function"
    },
    {
      "inputs": [
        {
          "internalType": "address",
          "name": "operator",
          "type": "address"
        },
        {
          "internalType": "bool",
          "name": "approved",
          "type": "bool"
        }
      ],
      "name": "setApprovalForAll",
      "outputs": [],
      "stateMutability": "nonpayable",
      "type": "function"
    },
    {
      "inputs": [
        {
          "internalType": "bytes4",
          "name": "interfaceId",
          "type": "bytes4"
        }
      ],
      "name": "supportsInterface",
      "outputs": [
        {
          "internalType": "bool",
          "name": "",
          "type": "bool"
        }
      ],
      "stateMutability": "view",
      "type": "function"
    },
    {
      "inputs": [],
      "name": "symbol",
      "outputs": [
        {
          "internalType": "string",
          "name": "",
          "type": "string"
        }
      ],
      "stateMutability": "view",
      "type": "function"
    },
    {
      "inputs": [
        {
          "internalType": "uint256",
          "name": "tokenId",
          "type": "uint256"
        }
      ],
      "name": "tokenURI",
      "outputs": [
        {
          "internalType": "string",
          "name": "",
          "type": "string"
        }
      ],
      "stateMutability": "view",
      "type": "function"
    },
    {
      "inputs": [],
      "name": "totalSupply",
      "outputs": [
        {
          "internalType": "uint256",
          "name": "",
          "type": "uint256"
        }
      ],
      "stateMutability": "view",
      "type": "function"
    },
    {
      "inputs": [
        {
          "internalType": "address",
          "name": "from",
          "type": "address"
        },
        {
          "internalType": "address",
          "name": "to",
          "type": "address"
        },
        {
          "internalType": "uint256",
          "name": "tokenId",
          "type": "uint256"
        }
      ],
      "name": "transferFrom",
      "outputs": [],
      "stateMutability": "nonpayable",
      "type": "function"
    },
    {
      "inputs": [
        {
          "internalType": "uint256",
          "name": "_listingPrice",
          "type": "uint256"
        }
      ],
      "name": "updateListingPrice",
      "outputs": [],
      "stateMutability": "payable",
      "type": "function"
    }
  ],
  "bytecode": "0x60806040526658d15e176280006009556001600a553480156200002157600080fd5b506040518060400160405280600c81526020017f536d6146657420546f6b656e00000000000000000000000000000000000000008152506040518060400160405280600681526020017f534d4146455400000000000000000000000000000000000000000000000000008152508160029080519060200190620000a692919062000128565b508060039080519060200190620000bf92919062000128565b50620000d06200011f60201b60201c565b600081905550505033600b60006101000a81548173ffffffffffffffffffffffffffffffffffffffff021916908373ffffffffffffffffffffffffffffffffffffffff1602179055506200023d565b60006001905090565b828054620001369062000207565b90600052602060002090601f0160209004810192826200015a5760008555620001a6565b82601f106200017557805160ff1916838001178555620001a6565b82800160010185558215620001a6579182015b82811115620001a557825182559160200191906001019062000188565b5b509050620001b59190620001b9565b5090565b5b80821115620001d4576000816000905550600101620001ba565b5090565b7f4e487b7100000000000000000000000000000000000000000000000000000000600052602260045260246000fd5b600060028204905060018216806200022057607f821691505b60208210811415620002375762000236620001d8565b5b50919050565b613ba7806200024d6000396000f3fe60806040526004361061014b5760003560e01c806345f8fa80116100b6578063ae677aa31161006f578063ae677aa3146104bf578063b88d4fde146104db578063be9af53614610504578063c87b56dd14610520578063e219fc751461055d578063e985e9c5146105795761014b565b806345f8fa80146103965780636352211e146103c157806370a08231146103fe57806372b3b6201461043b57806395d89b411461046b578063a22cb465146104965761014b565b8063150b7a0211610108578063150b7a021461027457806318160ddd146102b1578063202e3740146102dc57806323b872dd146103075780633bb3a24d1461033057806342842e0e1461036d5761014b565b806301ffc9a71461015057806306fdde031461018d578063081812fc146101b8578063095ea7b3146101f55780630f08efe01461021e57806312e8558514610249575b600080fd5b34801561015c57600080fd5b5061017760048036038101906101729190612a53565b6105b6565b6040516101849190612a9b565b60405180910390f35b34801561019957600080fd5b506101a2610648565b6040516101af9190612b4f565b60405180910390f35b3480156101c457600080fd5b506101df60048036038101906101da9190612ba7565b6106da565b6040516101ec9190612c15565b60405180910390f35b34801561020157600080fd5b5061021c60048036038101906102179190612c5c565b610759565b005b34801561022a57600080fd5b5061023361089d565b6040516102409190612df2565b60405180910390f35b34801561025557600080fd5b5061025e610b02565b60405161026b9190612e23565b60405180910390f35b34801561028057600080fd5b5061029b60048036038101906102969190612ea3565b610b0c565b6040516102a89190612f3a565b60405180910390f35b3480156102bd57600080fd5b506102c6610b3a565b6040516102d39190612e23565b60405180910390f35b3480156102e857600080fd5b506102f1610b51565b6040516102fe9190612df2565b60405180910390f35b34801561031357600080fd5b5061032e60048036038101906103299190612f55565b610e3d565b005b34801561033c57600080fd5b5061035760048036038101906103529190612ba7565b611162565b6040516103649190612b4f565b60405180910390f35b34801561037957600080fd5b50610394600480360381019061038f9190612f55565b611207565b005b3480156103a257600080fd5b506103ab611227565b6040516103b89190612df2565b60405180910390f35b3480156103cd57600080fd5b506103e860048036038101906103e39190612ba7565b611513565b6040516103f59190612c15565b60405180910390f35b34801561040a57600080fd5b5061042560048036038101906104209190612fa8565b611525565b6040516104329190612e23565b60405180910390f35b61045560048036038101906104509190613105565b6115de565b6040516104629190612e23565b60405180910390f35b34801561047757600080fd5b50610480611615565b60405161048d9190612b4f565b60405180910390f35b3480156104a257600080fd5b506104bd60048036038101906104b8919061318d565b6116a7565b005b6104d960048036038101906104d49190612ba7565b61181f565b005b3480156104e757600080fd5b5061050260048036038101906104fd919061326e565b6118b9565b005b61051e60048036038101906105199190612ba7565b61192c565b005b34801561052c57600080fd5b5061054760048036038101906105429190612ba7565b611ca7565b6040516105549190612b4f565b60405180910390f35b610577600480360381019061057291906132f1565b611d46565b005b34801561058557600080fd5b506105a0600480360381019061059b9190613331565b611f3b565b6040516105ad9190612a9b565b60405180910390f35b60006301ffc9a760e01b827bffffffffffffffffffffffffffffffffffffffffffffffffffffffff1916148061061157506380ac58cd60e01b827bffffffffffffffffffffffffffffffffffffffffffffffffffffffff1916145b806106415750635b5e139f60e01b827bffffffffffffffffffffffffffffffffffffffffffffffffffffffff1916145b9050919050565b606060028054610657906133a0565b80601f0160208091040260200160405190810160405280929190818152602001828054610683906133a0565b80156106d05780601f106106a5576101008083540402835291602001916106d0565b820191906000526020600020905b8154815290600101906020018083116106b357829003601f168201915b5050505050905090565b60006106e582611fcf565b61071b576040517fcf4700e400000000000000000000000000000000000000000000000000000000815260040160405180910390fd5b6006600083815260200190815260200160002060000160009054906101000a900473ffffffffffffffffffffffffffffffffffffffff169050919050565b600061076482611513565b90508073ffffffffffffffffffffffffffffffffffffffff1661078561202e565b73ffffffffffffffffffffffffffffffffffffffff16146107e8576107b1816107ac61202e565b611f3b565b6107e7576040517fcfb3b94200000000000000000000000000000000000000000000000000000000815260040160405180910390fd5b5b826006600084815260200190815260200160002060000160006101000a81548173ffffffffffffffffffffffffffffffffffffffff021916908373ffffffffffffffffffffffffffffffffffffffff160217905550818373ffffffffffffffffffffffffffffffffffffffff168273ffffffffffffffffffffffffffffffffffffffff167f8c5be1e5ebec7d5bd14f71427d1e84f3dd0314c0f7b2291e5b200ac8c7c3b92560405160405180910390a4505050565b606060006108a9612036565b905060006108b7600861203f565b6108bf612036565b6108c99190613401565b90506000808267ffffffffffffffff8111156108e8576108e7612fda565b5b60405190808252806020026020018201604052801561092157816020015b61090e6128e7565b8152602001906001900390816109065790505b50905060005b84811015610af7573073ffffffffffffffffffffffffffffffffffffffff16600d60006001846109579190613435565b815260200190815260200160002060020160009054906101000a900473ffffffffffffffffffffffffffffffffffffffff1673ffffffffffffffffffffffffffffffffffffffff161415610ae45760006001826109b49190613435565b90506000600d60008381526020019081526020016000209050806040518060a0016040529081600082015481526020016001820160009054906101000a900473ffffffffffffffffffffffffffffffffffffffff1673ffffffffffffffffffffffffffffffffffffffff1673ffffffffffffffffffffffffffffffffffffffff1681526020016002820160009054906101000a900473ffffffffffffffffffffffffffffffffffffffff1673ffffffffffffffffffffffffffffffffffffffff1673ffffffffffffffffffffffffffffffffffffffff168152602001600382015481526020016004820160009054906101000a900460ff161515151581525050848681518110610ac757610ac661348b565b5b6020026020010181905250600185610adf9190613435565b945050505b8080610aef906134ba565b915050610927565b508094505050505090565b6000600954905090565b60007f150b7a023d4804d13e8c85fb27262cb750cf6ba9f9dd3bb30d90f482ceeb4b1f905095945050505050565b6000610b4461204d565b6001546000540303905090565b60606000610b5d612036565b905060008060005b83811015610c06573373ffffffffffffffffffffffffffffffffffffffff16600d6000600184610b959190613435565b815260200190815260200160002060020160009054906101000a900473ffffffffffffffffffffffffffffffffffffffff1673ffffffffffffffffffffffffffffffffffffffff161415610bf357600183610bf09190613435565b92505b8080610bfe906134ba565b915050610b65565b5060008267ffffffffffffffff811115610c2357610c22612fda565b5b604051908082528060200260200182016040528015610c5c57816020015b610c496128e7565b815260200190600190039081610c415790505b50905060005b84811015610e32573373ffffffffffffffffffffffffffffffffffffffff16600d6000600184610c929190613435565b815260200190815260200160002060020160009054906101000a900473ffffffffffffffffffffffffffffffffffffffff1673ffffffffffffffffffffffffffffffffffffffff161415610e1f576000600182610cef9190613435565b90506000600d60008381526020019081526020016000209050806040518060a0016040529081600082015481526020016001820160009054906101000a900473ffffffffffffffffffffffffffffffffffffffff1673ffffffffffffffffffffffffffffffffffffffff1673ffffffffffffffffffffffffffffffffffffffff1681526020016002820160009054906101000a900473ffffffffffffffffffffffffffffffffffffffff1673ffffffffffffffffffffffffffffffffffffffff1673ffffffffffffffffffffffffffffffffffffffff168152602001600382015481526020016004820160009054906101000a900460ff161515151581525050848681518110610e0257610e0161348b565b5b6020026020010181905250600185610e1a9190613435565b945050505b8080610e2a906134ba565b915050610c62565b508094505050505090565b6000610e4882612056565b90508373ffffffffffffffffffffffffffffffffffffffff168173ffffffffffffffffffffffffffffffffffffffff1614610eaf576040517fa114810000000000000000000000000000000000000000000000000000000000815260040160405180910390fd5b600080610ebb84612124565b91509150610ed18187610ecc61202e565b61214b565b610f1d57610ee686610ee161202e565b611f3b565b610f1c576040517f59c896be00000000000000000000000000000000000000000000000000000000815260040160405180910390fd5b5b600073ffffffffffffffffffffffffffffffffffffffff168573ffffffffffffffffffffffffffffffffffffffff161415610f84576040517fea553b3400000000000000000000000000000000000000000000000000000000815260040160405180910390fd5b610f91868686600161218f565b8015610f9c57600082555b600560008773ffffffffffffffffffffffffffffffffffffffff1673ffffffffffffffffffffffffffffffffffffffff168152602001908152602001600020600081546001900391905081905550600560008673ffffffffffffffffffffffffffffffffffffffff1673ffffffffffffffffffffffffffffffffffffffff168152602001908152602001600020600081546001019190508190555061106a85611046888887612195565b7c0200000000000000000000000000000000000000000000000000000000176121bd565b600460008681526020019081526020016000208190555060007c0200000000000000000000000000000000000000000000000000000000841614156110f25760006001850190506000600460008381526020019081526020016000205414156110f05760005481146110ef578360046000838152602001908152602001600020819055505b5b505b838573ffffffffffffffffffffffffffffffffffffffff168773ffffffffffffffffffffffffffffffffffffffff167fddf252ad1be2c89b69c2b068fc378daa952ba7f163c4a11628f55a4df523b3ef60405160405180910390a461115a86868660016121e8565b505050505050565b6060600e60008381526020019081526020016000208054611182906133a0565b80601f01602080910402602001604051908101604052809291908181526020018280546111ae906133a0565b80156111fb5780601f106111d0576101008083540402835291602001916111fb565b820191906000526020600020905b8154815290600101906020018083116111de57829003601f168201915b50505050509050919050565b611222838383604051806020016040528060008152506118b9565b505050565b60606000611233612036565b905060008060005b838110156112dc573373ffffffffffffffffffffffffffffffffffffffff16600d600060018461126b9190613435565b815260200190815260200160002060010160009054906101000a900473ffffffffffffffffffffffffffffffffffffffff1673ffffffffffffffffffffffffffffffffffffffff1614156112c9576001836112c69190613435565b92505b80806112d4906134ba565b91505061123b565b5060008267ffffffffffffffff8111156112f9576112f8612fda565b5b60405190808252806020026020018201604052801561133257816020015b61131f6128e7565b8152602001906001900390816113175790505b50905060005b84811015611508573373ffffffffffffffffffffffffffffffffffffffff16600d60006001846113689190613435565b815260200190815260200160002060010160009054906101000a900473ffffffffffffffffffffffffffffffffffffffff1673ffffffffffffffffffffffffffffffffffffffff1614156114f55760006001826113c59190613435565b90506000600d60008381526020019081526020016000209050806040518060a0016040529081600082015481526020016001820160009054906101000a900473ffffffffffffffffffffffffffffffffffffffff1673ffffffffffffffffffffffffffffffffffffffff1673ffffffffffffffffffffffffffffffffffffffff1681526020016002820160009054906101000a900473ffffffffffffffffffffffffffffffffffffffff1673ffffffffffffffffffffffffffffffffffffffff1673ffffffffffffffffffffffffffffffffffffffff168152602001600382015481526020016004820160009054906101000a900460ff1615151515815250508486815181106114d8576114d761348b565b5b60200260200101819052506001856114f09190613435565b945050505b8080611500906134ba565b915050611338565b508094505050505090565b600061151e82612056565b9050919050565b60008073ffffffffffffffffffffffffffffffffffffffff168273ffffffffffffffffffffffffffffffffffffffff16141561158d576040517f8f4eb60400000000000000000000000000000000000000000000000000000000815260040160405180910390fd5b67ffffffffffffffff600560008473ffffffffffffffffffffffffffffffffffffffff1673ffffffffffffffffffffffffffffffffffffffff16815260200190815260200160002054169050919050565b6000806115e9612036565b90506115f733600a546121ee565b611601818561220c565b61160b8184612238565b8091505092915050565b606060038054611624906133a0565b80601f0160208091040260200160405190810160405280929190818152602001828054611650906133a0565b801561169d5780601f106116725761010080835404028352916020019161169d565b820191906000526020600020905b81548152906001019060200180831161168057829003601f168201915b5050505050905090565b6116af61202e565b73ffffffffffffffffffffffffffffffffffffffff168273ffffffffffffffffffffffffffffffffffffffff161415611714576040517fb06307db00000000000000000000000000000000000000000000000000000000815260040160405180910390fd5b806007600061172161202e565b73ffffffffffffffffffffffffffffffffffffffff1673ffffffffffffffffffffffffffffffffffffffff16815260200190815260200160002060008473ffffffffffffffffffffffffffffffffffffffff1673ffffffffffffffffffffffffffffffffffffffff16815260200190815260200160002060006101000a81548160ff0219169083151502179055508173ffffffffffffffffffffffffffffffffffffffff166117ce61202e565b73ffffffffffffffffffffffffffffffffffffffff167f17307eab39ab6107e8899845ad3d59bd9653f200f220920489ca2b5937696c31836040516118139190612a9b565b60405180910390a35050565b3373ffffffffffffffffffffffffffffffffffffffff16600b60009054906101000a900473ffffffffffffffffffffffffffffffffffffffff1673ffffffffffffffffffffffffffffffffffffffff16146118af576040517f08c379a00000000000000000000000000000000000000000000000000000000081526004016118a690613575565b60405180910390fd5b8060098190555050565b6118c4848484610e3d565b60008373ffffffffffffffffffffffffffffffffffffffff163b14611926576118ef8484848461243b565b611925576040517fd1a57ed600000000000000000000000000000000000000000000000000000000815260040160405180910390fd5b5b50505050565b6000600d60008381526020019081526020016000206003015490506000600d600084815260200190815260200160002060010160009054906101000a900473ffffffffffffffffffffffffffffffffffffffff1690508134146119c4576040517f08c379a00000000000000000000000000000000000000000000000000000000081526004016119bb9061362d565b60405180910390fd5b33600d600085815260200190815260200160002060020160006101000a81548173ffffffffffffffffffffffffffffffffffffffff021916908373ffffffffffffffffffffffffffffffffffffffff1602179055506001600d600085815260200190815260200160002060040160006101000a81548160ff0219169083151502179055506000600d600085815260200190815260200160002060010160006101000a81548173ffffffffffffffffffffffffffffffffffffffff021916908373ffffffffffffffffffffffffffffffffffffffff160217905550611aa8600861259b565b60003073ffffffffffffffffffffffffffffffffffffffff163385604051602401611ad492919061364d565b6040516020818303038152906040527f095ea7b3000000000000000000000000000000000000000000000000000000007bffffffffffffffffffffffffffffffffffffffffffffffffffffffff19166020820180517bffffffffffffffffffffffffffffffffffffffffffffffffffffffff8381831617835250505050604051611b5e91906136bd565b6000604051808303816000865af19150503d8060008114611b9b576040519150601f19603f3d011682016040523d82523d6000602084013e611ba0565b606091505b5050905080611be4576040517f08c379a0000000000000000000000000000000000000000000000000000000008152600401611bdb90613720565b60405180910390fd5b611bef303386611207565b600b60009054906101000a900473ffffffffffffffffffffffffffffffffffffffff1673ffffffffffffffffffffffffffffffffffffffff166108fc6009549081150290604051600060405180830381858888f19350505050158015611c59573d6000803e3d6000fd5b508173ffffffffffffffffffffffffffffffffffffffff166108fc349081150290604051600060405180830381858888f19350505050158015611ca0573d6000803e3d6000fd5b5050505050565b6060611cb282611fcf565b611ce8576040517fa14c4b5000000000000000000000000000000000000000000000000000000000815260040160405180910390fd5b6000611cf26125b1565b9050600081511415611d135760405180602001604052806000815250611d3e565b80611d1d846125c8565b604051602001611d2e92919061377c565b6040516020818303038152906040525b915050919050565b3373ffffffffffffffffffffffffffffffffffffffff16600d600084815260200190815260200160002060020160009054906101000a900473ffffffffffffffffffffffffffffffffffffffff1673ffffffffffffffffffffffffffffffffffffffff1614611dea576040517f08c379a0000000000000000000000000000000000000000000000000000000008152600401611de190613812565b60405180910390fd5b6009543414611e2e576040517f08c379a0000000000000000000000000000000000000000000000000000000008152600401611e25906138a4565b60405180910390fd5b6000600d600084815260200190815260200160002060040160006101000a81548160ff02191690831515021790555080600d60008481526020019081526020016000206003018190555033600d600084815260200190815260200160002060010160006101000a81548173ffffffffffffffffffffffffffffffffffffffff021916908373ffffffffffffffffffffffffffffffffffffffff16021790555030600d600084815260200190815260200160002060020160006101000a81548173ffffffffffffffffffffffffffffffffffffffff021916908373ffffffffffffffffffffffffffffffffffffffff160217905550611f2c6008612618565b611f37333084611207565b5050565b6000600760008473ffffffffffffffffffffffffffffffffffffffff1673ffffffffffffffffffffffffffffffffffffffff16815260200190815260200160002060008373ffffffffffffffffffffffffffffffffffffffff1673ffffffffffffffffffffffffffffffffffffffff16815260200190815260200160002060009054906101000a900460ff16905092915050565b600081611fda61204d565b11158015611fe9575060005482105b8015612027575060007c0100000000000000000000000000000000000000000000000000000000600460008581526020019081526020016000205416145b9050919050565b600033905090565b60008054905090565b600081600001549050919050565b60006001905090565b6000808290508061206561204d565b116120ed576000548110156120ec5760006004600083815260200190815260200160002054905060007c0100000000000000000000000000000000000000000000000000000000821614156120ea575b60008114156120e05760046000836001900393508381526020019081526020016000205490506120b5565b809250505061211f565b505b5b6040517fdf2d9b4200000000000000000000000000000000000000000000000000000000815260040160405180910390fd5b919050565b60008060006006600085815260200190815260200160002090508092508254915050915091565b600073ffffffffffffffffffffffffffffffffffffffff8316925073ffffffffffffffffffffffffffffffffffffffff821691508382148383141790509392505050565b50505050565b60008060e883901c905060e86121ac868684612674565b62ffffff16901b9150509392505050565b600073ffffffffffffffffffffffffffffffffffffffff83169250814260a01b178317905092915050565b50505050565b61220882826040518060200160405280600081525061267d565b5050565b80600e60008481526020019081526020016000209080519060200190612233929190612944565b505050565b6000811161227b576040517f08c379a000000000000000000000000000000000000000000000000000000000815260040161227290613936565b60405180910390fd5b60095434146122bf576040517f08c379a00000000000000000000000000000000000000000000000000000000081526004016122b6906139c8565b60405180910390fd5b6040518060a001604052808381526020013373ffffffffffffffffffffffffffffffffffffffff1681526020013073ffffffffffffffffffffffffffffffffffffffff16815260200182815260200160001515815250600d60008481526020019081526020016000206000820151816000015560208201518160010160006101000a81548173ffffffffffffffffffffffffffffffffffffffff021916908373ffffffffffffffffffffffffffffffffffffffff16021790555060408201518160020160006101000a81548173ffffffffffffffffffffffffffffffffffffffff021916908373ffffffffffffffffffffffffffffffffffffffff1602179055506060820151816003015560808201518160040160006101000a81548160ff0219169083151502179055509050506123f8333084611207565b817fb640004f1d14576d0c209e240cad0410e0d8c0c33a09375861fbadae2588a98d333084600060405161242f94939291906139e8565b60405180910390a25050565b60008373ffffffffffffffffffffffffffffffffffffffff1663150b7a0261246161202e565b8786866040518563ffffffff1660e01b81526004016124839493929190613a77565b602060405180830381600087803b15801561249d57600080fd5b505af19250505080156124ce57506040513d601f19601f820116820180604052508101906124cb9190613ad8565b60015b612548573d80600081146124fe576040519150601f19603f3d011682016040523d82523d6000602084013e612503565b606091505b50600081511415612540576040517fd1a57ed600000000000000000000000000000000000000000000000000000000815260040160405180910390fd5b805181602001fd5b63150b7a0260e01b7bffffffffffffffffffffffffffffffffffffffffffffffffffffffff1916817bffffffffffffffffffffffffffffffffffffffffffffffffffffffff191614915050949350505050565b6001816000016000828254019250508190555050565b606060405180602001604052806000815250905090565b606060806040510190508060405280825b60011561260457600183039250600a81066030018353600a81049050806125ff57612604565b6125d9565b508181036020830392508083525050919050565b60008160000154905060008111612664576040517f08c379a000000000000000000000000000000000000000000000000000000000815260040161265b90613b51565b60405180910390fd5b6001810382600001819055505050565b60009392505050565b612687838361271a565b60008373ffffffffffffffffffffffffffffffffffffffff163b1461271557600080549050600083820390505b6126c7600086838060010194508661243b565b6126fd576040517fd1a57ed600000000000000000000000000000000000000000000000000000000815260040160405180910390fd5b8181106126b457816000541461271257600080fd5b50505b505050565b600080549050600082141561275b576040517fb562e8dd00000000000000000000000000000000000000000000000000000000815260040160405180910390fd5b612768600084838561218f565b600160406001901b178202600560008573ffffffffffffffffffffffffffffffffffffffff1673ffffffffffffffffffffffffffffffffffffffff168152602001908152602001600020600082825401925050819055506127df836127d06000866000612195565b6127d9856128d7565b176121bd565b6004600083815260200190815260200160002081905550600080838301905073ffffffffffffffffffffffffffffffffffffffff85169150828260007fddf252ad1be2c89b69c2b068fc378daa952ba7f163c4a11628f55a4df523b3ef600080a4600183015b81811461288057808360007fddf252ad1be2c89b69c2b068fc378daa952ba7f163c4a11628f55a4df523b3ef600080a4600181019050612845565b5060008214156128bc576040517f2e07630000000000000000000000000000000000000000000000000000000000815260040160405180910390fd5b8060008190555050506128d260008483856121e8565b505050565b60006001821460e11b9050919050565b6040518060a0016040528060008152602001600073ffffffffffffffffffffffffffffffffffffffff168152602001600073ffffffffffffffffffffffffffffffffffffffff168152602001600081526020016000151581525090565b828054612950906133a0565b90600052602060002090601f01602090048101928261297257600085556129b9565b82601f1061298b57805160ff19168380011785556129b9565b828001600101855582156129b9579182015b828111156129b857825182559160200191906001019061299d565b5b5090506129c691906129ca565b5090565b5b808211156129e35760008160009055506001016129cb565b5090565b6000604051905090565b600080fd5b600080fd5b60007fffffffff0000000000000000000000000000000000000000000000000000000082169050919050565b612a30816129fb565b8114612a3b57600080fd5b50565b600081359050612a4d81612a27565b92915050565b600060208284031215612a6957612a686129f1565b5b6000612a7784828501612a3e565b91505092915050565b60008115159050919050565b612a9581612a80565b82525050565b6000602082019050612ab06000830184612a8c565b92915050565b600081519050919050565b600082825260208201905092915050565b60005b83811015612af0578082015181840152602081019050612ad5565b83811115612aff576000848401525b50505050565b6000601f19601f8301169050919050565b6000612b2182612ab6565b612b2b8185612ac1565b9350612b3b818560208601612ad2565b612b4481612b05565b840191505092915050565b60006020820190508181036000830152612b698184612b16565b905092915050565b6000819050919050565b612b8481612b71565b8114612b8f57600080fd5b50565b600081359050612ba181612b7b565b92915050565b600060208284031215612bbd57612bbc6129f1565b5b6000612bcb84828501612b92565b91505092915050565b600073ffffffffffffffffffffffffffffffffffffffff82169050919050565b6000612bff82612bd4565b9050919050565b612c0f81612bf4565b82525050565b6000602082019050612c2a6000830184612c06565b92915050565b612c3981612bf4565b8114612c4457600080fd5b50565b600081359050612c5681612c30565b92915050565b60008060408385031215612c7357612c726129f1565b5b6000612c8185828601612c47565b9250506020612c9285828601612b92565b9150509250929050565b600081519050919050565b600082825260208201905092915050565b6000819050602082019050919050565b612cd181612b71565b82525050565b6000612ce282612bd4565b9050919050565b612cf281612cd7565b82525050565b612d0181612a80565b82525050565b60a082016000820151612d1d6000850182612cc8565b506020820151612d306020850182612ce9565b506040820151612d436040850182612ce9565b506060820151612d566060850182612cc8565b506080820151612d696080850182612cf8565b50505050565b6000612d7b8383612d07565b60a08301905092915050565b6000602082019050919050565b6000612d9f82612c9c565b612da98185612ca7565b9350612db483612cb8565b8060005b83811015612de5578151612dcc8882612d6f565b9750612dd783612d87565b925050600181019050612db8565b5085935050505092915050565b60006020820190508181036000830152612e0c8184612d94565b905092915050565b612e1d81612b71565b82525050565b6000602082019050612e386000830184612e14565b92915050565b600080fd5b600080fd5b600080fd5b60008083601f840112612e6357612e62612e3e565b5b8235905067ffffffffffffffff811115612e8057612e7f612e43565b5b602083019150836001820283011115612e9c57612e9b612e48565b5b9250929050565b600080600080600060808688031215612ebf57612ebe6129f1565b5b6000612ecd88828901612c47565b9550506020612ede88828901612c47565b9450506040612eef88828901612b92565b935050606086013567ffffffffffffffff811115612f1057612f0f6129f6565b5b612f1c88828901612e4d565b92509250509295509295909350565b612f34816129fb565b82525050565b6000602082019050612f4f6000830184612f2b565b92915050565b600080600060608486031215612f6e57612f6d6129f1565b5b6000612f7c86828701612c47565b9350506020612f8d86828701612c47565b9250506040612f9e86828701612b92565b9150509250925092565b600060208284031215612fbe57612fbd6129f1565b5b6000612fcc84828501612c47565b91505092915050565b600080fd5b7f4e487b7100000000000000000000000000000000000000000000000000000000600052604160045260246000fd5b61301282612b05565b810181811067ffffffffffffffff8211171561303157613030612fda565b5b80604052505050565b60006130446129e7565b90506130508282613009565b919050565b600067ffffffffffffffff8211156130705761306f612fda565b5b61307982612b05565b9050602081019050919050565b82818337600083830152505050565b60006130a86130a384613055565b61303a565b9050828152602081018484840111156130c4576130c3612fd5565b5b6130cf848285613086565b509392505050565b600082601f8301126130ec576130eb612e3e565b5b81356130fc848260208601613095565b91505092915050565b6000806040838503121561311c5761311b6129f1565b5b600083013567ffffffffffffffff81111561313a576131396129f6565b5b613146858286016130d7565b925050602061315785828601612b92565b9150509250929050565b61316a81612a80565b811461317557600080fd5b50565b60008135905061318781613161565b92915050565b600080604083850312156131a4576131a36129f1565b5b60006131b285828601612c47565b92505060206131c385828601613178565b9150509250929050565b600067ffffffffffffffff8211156131e8576131e7612fda565b5b6131f182612b05565b9050602081019050919050565b600061321161320c846131cd565b61303a565b90508281526020810184848401111561322d5761322c612fd5565b5b613238848285613086565b509392505050565b600082601f83011261325557613254612e3e565b5b81356132658482602086016131fe565b91505092915050565b60008060008060808587031215613288576132876129f1565b5b600061329687828801612c47565b94505060206132a787828801612c47565b93505060406132b887828801612b92565b925050606085013567ffffffffffffffff8111156132d9576132d86129f6565b5b6132e587828801613240565b91505092959194509250565b60008060408385031215613308576133076129f1565b5b600061331685828601612b92565b925050602061332785828601612b92565b9150509250929050565b60008060408385031215613348576133476129f1565b5b600061335685828601612c47565b925050602061336785828601612c47565b9150509250929050565b7f4e487b7100000000000000000000000000000000000000000000000000000000600052602260045260246000fd5b600060028204905060018216806133b857607f821691505b602082108114156133cc576133cb613371565b5b50919050565b7f4e487b7100000000000000000000000000000000000000000000000000000000600052601160045260246000fd5b600061340c82612b71565b915061341783612b71565b92508282101561342a576134296133d2565b5b828203905092915050565b600061344082612b71565b915061344b83612b71565b9250827fffffffffffffffffffffffffffffffffffffffffffffffffffffffffffffffff038211156134805761347f6133d2565b5b828201905092915050565b7f4e487b7100000000000000000000000000000000000000000000000000000000600052603260045260246000fd5b60006134c582612b71565b91507fffffffffffffffffffffffffffffffffffffffffffffffffffffffffffffffff8214156134f8576134f76133d2565b5b600182019050919050565b7f4552522d312e302e313a204f6e6c79206d61726b6574706c616365206f776e6560008201527f722063616e20757064617465206c697374696e672070726963652e0000000000602082015250565b600061355f603b83612ac1565b915061356a82613503565b604082019050919050565b6000602082019050818103600083015261358e81613552565b9050919050565b7f4552522d312e302e363a20506c65617365207375626d6974207468652061736b60008201527f696e6720707269636520696e206f7264657220746f20636f6d706c657465207460208201527f6865207075726368617365000000000000000000000000000000000000000000604082015250565b6000613617604b83612ac1565b915061362282613595565b606082019050919050565b600060208201905081810360008301526136468161360a565b9050919050565b60006040820190506136626000830185612c06565b61366f6020830184612e14565b9392505050565b600081519050919050565b600081905092915050565b600061369782613676565b6136a18185613681565b93506136b1818560208601612ad2565b80840191505092915050565b60006136c9828461368c565b915081905092915050565b7f4552522d312e302e373a2043616e6e6f7420617070726f766520627579657200600082015250565b600061370a601f83612ac1565b9150613715826136d4565b602082019050919050565b60006020820190508181036000830152613739816136fd565b9050919050565b600081905092915050565b600061375682612ab6565b6137608185613740565b9350613770818560208601612ad2565b80840191505092915050565b6000613788828561374b565b9150613794828461374b565b91508190509392505050565b7f4552522d312e302e343a204f6e6c79206974656d206f776e65722063616e207060008201527f6572666f726d2074686973206f7065726174696f6e0000000000000000000000602082015250565b60006137fc603583612ac1565b9150613807826137a0565b604082019050919050565b6000602082019050818103600083015261382b816137ef565b9050919050565b7f4552522d312e302e353a205072696365206d75737420626520657175616c207460008201527f6f206c697374696e672070726963650000000000000000000000000000000000602082015250565b600061388e602f83612ac1565b915061389982613832565b604082019050919050565b600060208201905081810360008301526138bd81613881565b9050919050565b7f4552522d312e302e323a5072696365206d757374206265206174206c6561737460008201527f2031207765690000000000000000000000000000000000000000000000000000602082015250565b6000613920602683612ac1565b915061392b826138c4565b604082019050919050565b6000602082019050818103600083015261394f81613913565b9050919050565b7f4552522d312e302e333a5072696365206d75737420626520657175616c20746f60008201527f206c697374696e67207072696365000000000000000000000000000000000000602082015250565b60006139b2602e83612ac1565b91506139bd82613956565b604082019050919050565b600060208201905081810360008301526139e1816139a5565b9050919050565b60006080820190506139fd6000830187612c06565b613a0a6020830186612c06565b613a176040830185612e14565b613a246060830184612a8c565b95945050505050565b600082825260208201905092915050565b6000613a4982613676565b613a538185613a2d565b9350613a63818560208601612ad2565b613a6c81612b05565b840191505092915050565b6000608082019050613a8c6000830187612c06565b613a996020830186612c06565b613aa66040830185612e14565b8181036060830152613ab88184613a3e565b905095945050505050565b600081519050613ad281612a27565b92915050565b600060208284031215613aee57613aed6129f1565b5b6000613afc84828501613ac3565b91505092915050565b7f436f756e7465723a2064656372656d656e74206f766572666c6f770000000000600082015250565b6000613b3b601b83612ac1565b9150613b4682613b05565b602082019050919050565b60006020820190508181036000830152613b6a81613b2e565b905091905056fea26469706673582212209046ae4ad413d8e4d0687aee463a0ceaa84fa75dec33cdcc6632bbe87db6574a64736f6c63430008090033",
  "linkReferences": {},
  "deployedLinkReferences": {}
}